{
  "transactions": [
    {
      "hash": "0x22bdbdf00c72f2fdad0253e11638131a39793c0db8abd08b356648a08d24b291",
      "transactionType": "CALL",
      "contractName": null,
      "contractAddress": "0x576f2803354d05c67425610f4d9b1068ce723c76",
      "function": "addFactory(address)",
      "arguments": [
        "0xDD21f566b37c6Aaf1Abf024b815d802931D6D3f9"
      ],
      "transaction": {
        "from": "0xc1200b5147ba1a0348b8462d00d237016945dfff",
        "to": "0x576f2803354d05c67425610f4d9b1068ce723c76",
        "gas": "0x107f2",
        "value": "0x0",
        "input": "0x29ce1ec5000000000000000000000000dd21f566b37c6aaf1abf024b815d802931d6d3f9",
        "nonce": "0x30",
        "chainId": "0xaa37dc"
      },
      "additionalContracts": [],
      "isFixedGasLimit": false
    },
    {
      "hash": "0x3466e4cf886adbfd3f6f842a677db4e4fc486b0ef9164862e76273f09ed08293",
      "transactionType": "CALL",
      "contractName": null,
      "contractAddress": "0x576f2803354d05c67425610f4d9b1068ce723c76",
      "function": "deposit()",
      "arguments": [],
      "transaction": {
        "from": "0xc1200b5147ba1a0348b8462d00d237016945dfff",
        "to": "0x576f2803354d05c67425610f4d9b1068ce723c76",
        "gas": "0x12a6a",
        "value": "0x2386f26fc10000",
        "input": "0xd0e30db0",
        "nonce": "0x31",
        "chainId": "0xaa37dc"
      },
      "additionalContracts": [],
      "isFixedGasLimit": false
    }
  ],
  "receipts": [
    {
      "status": "0x1",
      "cumulativeGasUsed": "0x1ea0e7",
      "logs": [],
      "logsBloom": "0x00000000000000000000000000000000000000000000000000000000000000000000000000000000000000000000000000000000000000000000000000000000000000000000000000000000000000000000000000000000000000000000000000000000000000000000000000000000000000000000000000000000000000000000000000000000000000000000000000000000000000000000000000000000000000000000000000000000000000000000000000000000000000000000000000000000000000000000000000000000000000000000000000000000000000000000000000000000000000000000000000000000000000000000000000000000",
      "type": "0x2",
      "transactionHash": "0x22bdbdf00c72f2fdad0253e11638131a39793c0db8abd08b356648a08d24b291",
      "transactionIndex": "0x2",
      "blockHash": "0x97534b10ae324ac8f056fc419a29c64a5c98d564435ea9178c34427e2d4bdb04",
      "blockNumber": "0x121e657",
      "gasUsed": "0xb47a",
      "effectiveGasPrice": "0x8656b",
      "from": "0xc1200b5147ba1a0348b8462d00d237016945dfff",
      "to": "0x576f2803354d05c67425610f4d9b1068ce723c76",
      "contractAddress": null,
      "l1BaseFeeScalar": "0x1db0",
      "l1BlobBaseFee": "0x6574a002c",
      "l1BlobBaseFeeScalar": "0xd2730",
      "l1Fee": "0x2229a0692e5",
      "l1GasPrice": "0x34ce3b",
      "l1GasUsed": "0x640"
    },
    {
      "status": "0x1",
      "cumulativeGasUsed": "0x43182",
      "logs": [
        {
          "address": "0x5ff137d4b0fdcd49dca30c7cf57e578a026d2789",
          "topics": [
            "0x2da466a7b24304f47e87fa2e1e5a81b9831ce54fec19055ce277ca2f39ba42c4",
            "0x000000000000000000000000576f2803354d05c67425610f4d9b1068ce723c76"
          ],
          "data": "0x000000000000000000000000000000000000000000000000002386f26fc10000",
          "blockHash": "0xc8bc35d84c06c5150beb1bb062c9fe9bcc0531c14f21fe27f5ec5a2d5a622858",
          "blockNumber": "0x121e65c",
          "transactionHash": "0x3466e4cf886adbfd3f6f842a677db4e4fc486b0ef9164862e76273f09ed08293",
          "transactionIndex": "0x3",
          "logIndex": "0x2",
          "removed": false
        }
      ],
      "logsBloom": "0x000000000000000000000004000000000000000000000000000000000000000000000000000000000002000000000000001000000000000000000000000000000000000000000000000000000000000000000000000000000000000000002000000000000c0000000000000000000000000000000000000000000000000200000000000000000000000000000000000000000000000000000000000000000000000000000000000000000000000000000000000000000000000000000000000000000000000000000000000000000000000000000000000000000000000000000040000000000000000000080000000000000000000000000000000000000000",
      "type": "0x2",
      "transactionHash": "0x3466e4cf886adbfd3f6f842a677db4e4fc486b0ef9164862e76273f09ed08293",
      "transactionIndex": "0x3",
      "blockHash": "0xc8bc35d84c06c5150beb1bb062c9fe9bcc0531c14f21fe27f5ec5a2d5a622858",
      "blockNumber": "0x121e65c",
      "gasUsed": "0xd80d",
      "effectiveGasPrice": "0x8656b",
      "from": "0xc1200b5147ba1a0348b8462d00d237016945dfff",
      "to": "0x576f2803354d05c67425610f4d9b1068ce723c76",
      "contractAddress": null,
      "l1BaseFeeScalar": "0x1db0",
      "l1BlobBaseFee": "0x7223341d4",
      "l1BlobBaseFeeScalar": "0xd2730",
      "l1Fee": "0x266ed04158e",
      "l1GasPrice": "0x35d357",
      "l1GasUsed": "0x640"
    }
  ],
  "libraries": [],
  "pending": [],
  "returns": {},
  "timestamp": 1729800298,
  "chain": 11155420,
  "commit": "47864ce"
}