{
  "transactions": [
    {
      "hash": null,
      "transactionType": "CALL",
      "contractName": null,
      "contractAddress": "0x5ff137d4b0fdcd49dca30c7cf57e578a026d2789",
      "function": "handleOps((address,uint256,bytes,bytes,uint256,uint256,uint256,uint256,uint256,bytes,bytes)[],address)",
      "arguments": [
        "[(0x2cdECc2C3FEA2B68949169d0eFA84D9517d05326, 155930327655066839810051, 0x, 0x2c2abd1e00000000000000000000000000000000000000000000000000000000000000200000000000000000000000000000000000000000000000000000000000000001000000000000000000000000000000000000000000000000000000000000002000000000000000000000000000000000000000000000000000000000000000240f0f3f240000000000000000000000000397b15451ad09c5e7fd851bcc1315462ac72c2f00000000000000000000000000000000000000000000000000000000, 10000000, 10000000, 0, 10000000, 10000000, 0x576f2803354d05c67425610f4d9b1068ce723c7600000000000000000000000000000000000000000000000000000000000000200000000000000000000000000000000000000000000000000000000000000000, 0x0000000000000000000000000000000000000000000000000000000000000020000000000000000000000000000000000000000000000000000000000000000000000000000000000000000000000000000000000000000000000000000000400000000000000000000000000000000000000000000000000000000000000041979feb496cf01bd3d861b7e9e2ef31142d452243fe87df051662c28c8a73343f072f6611b5a85ef48bcee775bf47d19d30114619fdcba02ab47eef2e3a7b7ec91b00000000000000000000000000000000000000000000000000000000000000)]",
        "0x2cdECc2C3FEA2B68949169d0eFA84D9517d05326"
      ],
      "transaction": {
        "from": "0x05d7e9c726af8a59726cb2a08230041ff933659c",
        "to": "0x5ff137d4b0fdcd49dca30c7cf57e578a026d2789",
        "value": "0x0",
        "input": "0x1fad948c00000000000000000000000000000000000000000000000000000000000000400000000000000000000000002cdecc2c3fea2b68949169d0efa84d9517d05326000000000000000000000000000000000000000000000000000000000000000100000000000000000000000000000000000000000000000000000000000000200000000000000000000000002cdecc2c3fea2b68949169d0efa84d9517d053260000000000000000000000000000000000000000000021050000000000000003000000000000000000000000000000000000000000000000000000000000016000000000000000000000000000000000000000000000000000000000000001800000000000000000000000000000000000000000000000000000000000989680000000000000000000000000000000000000000000000000000000000098968000000000000000000000000000000000000000000000000000000000000000000000000000000000000000000000000000000000000000000000000000989680000000000000000000000000000000000000000000000000000000000098968000000000000000000000000000000000000000000000000000000000000002800000000000000000000000000000000000000000000000000000000000000300000000000000000000000000000000000000000000000000000000000000000000000000000000000000000000000000000000000000000000000000000000c42c2abd1e00000000000000000000000000000000000000000000000000000000000000200000000000000000000000000000000000000000000000000000000000000001000000000000000000000000000000000000000000000000000000000000002000000000000000000000000000000000000000000000000000000000000000240f0f3f240000000000000000000000000397b15451ad09c5e7fd851bcc1315462ac72c2f00000000000000000000000000000000000000000000000000000000000000000000000000000000000000000000000000000000000000000000000000000000000000000000000000000000000000000000000000000054576f2803354d05c67425610f4d9b1068ce723c760000000000000000000000000000000000000000000000000000000000000020000000000000000000000000000000000000000000000000000000000000000000000000000000000000000000000000000000000000000000000000000000000000000000000000000000e00000000000000000000000000000000000000000000000000000000000000020000000000000000000000000000000000000000000000000000000000000000000000000000000000000000000000000000000000000000000000000000000400000000000000000000000000000000000000000000000000000000000000041979feb496cf01bd3d861b7e9e2ef31142d452243fe87df051662c28c8a73343f072f6611b5a85ef48bcee775bf47d19d30114619fdcba02ab47eef2e3a7b7ec91b00000000000000000000000000000000000000000000000000000000000000",
        "nonce": "0x0",
        "chainId": "0xaa37dc"
      },
      "additionalContracts": [],
      "isFixedGasLimit": false
    }
  ],
  "receipts": [],
  "libraries": [],
  "pending": [],
  "returns": {},
  "timestamp": 1730136123,
  "chain": 11155420,
  "commit": "47864ce"
}