{
  "transactions": [
    {
      "hash": "0x6b725290cb7eb1275f7e23cd89534a803c1960850a00206afa21d7184e1e57d5",
      "transactionType": "CALL",
      "contractName": null,
      "contractAddress": "0x5ff137d4b0fdcd49dca30c7cf57e578a026d2789",
      "function": "handleOps((address,uint256,bytes,bytes,uint256,uint256,uint256,uint256,uint256,bytes,bytes)[],address)",
      "arguments": [
        "[(0x2cdECc2C3FEA2B68949169d0eFA84D9517d05326, 155930327655066839810050, 0x, 0x2c2abd1e00000000000000000000000000000000000000000000000000000000000000200000000000000000000000000000000000000000000000000000000000000001000000000000000000000000000000000000000000000000000000000000002000000000000000000000000000000000000000000000000000000000000000240f0f3f24000000000000000000000000c1200b5147ba1a0348b8462d00d237016945dfff00000000000000000000000000000000000000000000000000000000, 10000000, 10000000, 0, 0, 0, 0x576f2803354d05c67425610f4d9b1068ce723c76, 0x0000000000000000000000000000000000000000000000000000000000000020000000000000000000000000000000000000000000000000000000000000000000000000000000000000000000000000000000000000000000000000000000400000000000000000000000000000000000000000000000000000000000000041d6c092f615ae3076c9ca62c6c2746b5da8d19e22b2a596961dfbc26cf1b502d005ff39ea9d086449150b9298617669430936330a7b2ec5efca95eda1a4051d931b00000000000000000000000000000000000000000000000000000000000000)]",
        "0x2cdECc2C3FEA2B68949169d0eFA84D9517d05326"
      ],
      "transaction": {
        "from": "0xc1200b5147ba1a0348b8462d00d237016945dfff",
        "to": "0x5ff137d4b0fdcd49dca30c7cf57e578a026d2789",
        "value": "0x0",
        "input": "0x1fad948c00000000000000000000000000000000000000000000000000000000000000400000000000000000000000002cdecc2c3fea2b68949169d0efa84d9517d05326000000000000000000000000000000000000000000000000000000000000000100000000000000000000000000000000000000000000000000000000000000200000000000000000000000002cdecc2c3fea2b68949169d0efa84d9517d0532600000000000000000000000000000000000000000000210500000000000000020000000000000000000000000000000000000000000000000000000000000160000000000000000000000000000000000000000000000000000000000000018000000000000000000000000000000000000000000000000000000000009896800000000000000000000000000000000000000000000000000000000000989680000000000000000000000000000000000000000000000000000000000000000000000000000000000000000000000000000000000000000000000000000000000000000000000000000000000000000000000000000000000000000000000000000000000000000000000000000000000000000000000000000000000000028000000000000000000000000000000000000000000000000000000000000002c0000000000000000000000000000000000000000000000000000000000000000000000000000000000000000000000000000000000000000000000000000000c42c2abd1e00000000000000000000000000000000000000000000000000000000000000200000000000000000000000000000000000000000000000000000000000000001000000000000000000000000000000000000000000000000000000000000002000000000000000000000000000000000000000000000000000000000000000240f0f3f24000000000000000000000000c1200b5147ba1a0348b8462d00d237016945dfff00000000000000000000000000000000000000000000000000000000000000000000000000000000000000000000000000000000000000000000000000000000000000000000000000000000000000000000000000000014576f2803354d05c67425610f4d9b1068ce723c7600000000000000000000000000000000000000000000000000000000000000000000000000000000000000e00000000000000000000000000000000000000000000000000000000000000020000000000000000000000000000000000000000000000000000000000000000000000000000000000000000000000000000000000000000000000000000000400000000000000000000000000000000000000000000000000000000000000041d6c092f615ae3076c9ca62c6c2746b5da8d19e22b2a596961dfbc26cf1b502d005ff39ea9d086449150b9298617669430936330a7b2ec5efca95eda1a4051d931b00000000000000000000000000000000000000000000000000000000000000",
        "nonce": "0x34",
        "chainId": "0xaa37dc"
      },
      "additionalContracts": [],
      "isFixedGasLimit": false
    }
  ],
  "receipts": [
    {
      "status": "0x1",
      "cumulativeGasUsed": "0x233074",
      "logs": [
        {
          "address": "0x4de3fbb6df50a7e6dbeef948dffc1e38beceb72c",
          "topics": [
            "0x58d54a183ecca20b3ab42203e6af3cd7b55bf2e7e93cbfa16ca7aff9fbb7228c",
            "0x0000000000000000000000002cdecc2c3fea2b68949169d0efa84d9517d05326"
          ],
          "data": "0x00000000000000000000000000000000000000000000000000000000000000200000000000000000000000002cdecc2c3fea2b68949169d0efa84d9517d0532600000000000000000000000000000000000000000000210500000000000000020000000000000000000000000000000000000000000000000000000000000160000000000000000000000000000000000000000000000000000000000000018000000000000000000000000000000000000000000000000000000000009896800000000000000000000000000000000000000000000000000000000000989680000000000000000000000000000000000000000000000000000000000000000000000000000000000000000000000000000000000000000000000000000000000000000000000000000000000000000000000000000000000000000000000000000000000000000000000000000000000000000000000000000000000000028000000000000000000000000000000000000000000000000000000000000002c0000000000000000000000000000000000000000000000000000000000000000000000000000000000000000000000000000000000000000000000000000000c42c2abd1e00000000000000000000000000000000000000000000000000000000000000200000000000000000000000000000000000000000000000000000000000000001000000000000000000000000000000000000000000000000000000000000002000000000000000000000000000000000000000000000000000000000000000240f0f3f24000000000000000000000000c1200b5147ba1a0348b8462d00d237016945dfff00000000000000000000000000000000000000000000000000000000000000000000000000000000000000000000000000000000000000000000000000000000000000000000000000000000000000000000000000000014576f2803354d05c67425610f4d9b1068ce723c7600000000000000000000000000000000000000000000000000000000000000000000000000000000000000e00000000000000000000000000000000000000000000000000000000000000020000000000000000000000000000000000000000000000000000000000000000000000000000000000000000000000000000000000000000000000000000000400000000000000000000000000000000000000000000000000000000000000041d6c092f615ae3076c9ca62c6c2746b5da8d19e22b2a596961dfbc26cf1b502d005ff39ea9d086449150b9298617669430936330a7b2ec5efca95eda1a4051d931b00000000000000000000000000000000000000000000000000000000000000",
          "blockHash": "0x88f5039a68cc5d7d82a56ec6af85dc8b0b66180e07478b5a7ff4455e1938b94d",
          "blockNumber": "0x12473a7",
          "transactionHash": "0x6b725290cb7eb1275f7e23cd89534a803c1960850a00206afa21d7184e1e57d5",
          "transactionIndex": "0x5",
          "logIndex": "0x1a",
          "removed": false
        },
        {
          "address": "0x5ff137d4b0fdcd49dca30c7cf57e578a026d2789",
          "topics": [
            "0xbb47ee3e183a558b1a2ff0874b079f3fc5478b7454eacf2bfc5af2ff5878f972"
          ],
          "data": "0x",
          "blockHash": "0x88f5039a68cc5d7d82a56ec6af85dc8b0b66180e07478b5a7ff4455e1938b94d",
          "blockNumber": "0x12473a7",
          "transactionHash": "0x6b725290cb7eb1275f7e23cd89534a803c1960850a00206afa21d7184e1e57d5",
          "transactionIndex": "0x5",
          "logIndex": "0x1b",
          "removed": false
        },
        {
          "address": "0x5ff137d4b0fdcd49dca30c7cf57e578a026d2789",
          "topics": [
            "0x1c4fada7374c0a9ee8841fc38afe82932dc0f8e69012e927f061a8bae611a201",
            "0xfb2c51388b706e55c66489b90d709be403e2c99a4c86e6ae1762787e8e4b7eea",
            "0x0000000000000000000000002cdecc2c3fea2b68949169d0efa84d9517d05326"
          ],
          "data": "0x0000000000000000000000000000000000000000000021050000000000000002000000000000000000000000000000000000000000000000000000000000004000000000000000000000000000000000000000000000000000000000000000648d16255a00000000000000000000000000000000000000000000000000000000000000200000000000000000000000000000000000000000000000000000000000000020000000000000000000000000c1200b5147ba1a0348b8462d00d237016945dfff00000000000000000000000000000000000000000000000000000000",
          "blockHash": "0x88f5039a68cc5d7d82a56ec6af85dc8b0b66180e07478b5a7ff4455e1938b94d",
          "blockNumber": "0x12473a7",
          "transactionHash": "0x6b725290cb7eb1275f7e23cd89534a803c1960850a00206afa21d7184e1e57d5",
          "transactionIndex": "0x5",
          "logIndex": "0x1c",
          "removed": false
        },
        {
          "address": "0x5ff137d4b0fdcd49dca30c7cf57e578a026d2789",
          "topics": [
            "0x49628fd1471006c1482da88028e9ce4dbb080b815c9b0344d39e5a8e6ec1419f",
            "0xfb2c51388b706e55c66489b90d709be403e2c99a4c86e6ae1762787e8e4b7eea",
            "0x0000000000000000000000002cdecc2c3fea2b68949169d0efa84d9517d05326",
            "0x000000000000000000000000576f2803354d05c67425610f4d9b1068ce723c76"
          ],
          "data": "0x000000000000000000000000000000000000000000002105000000000000000200000000000000000000000000000000000000000000000000000000000000000000000000000000000000000000000000000000000000000000000000000000000000000000000000000000000000000000000000000000000000000001878f",
          "blockHash": "0x88f5039a68cc5d7d82a56ec6af85dc8b0b66180e07478b5a7ff4455e1938b94d",
          "blockNumber": "0x12473a7",
          "transactionHash": "0x6b725290cb7eb1275f7e23cd89534a803c1960850a00206afa21d7184e1e57d5",
          "transactionIndex": "0x5",
          "logIndex": "0x1d",
          "removed": false
        }
      ],
      "logsBloom": "0x000000000000000000000004000000000000008000000000000000000000000000080000000000002002000100000000001000000000000000000200000000000000000000000000000000000000000000000000000000000000000000400000000000000c0004000000000000040010000000000000000000000000000000000000100000000010000000000000000000000000000000000000100000000000000000000000000000400000000000000000000020000000000002000000000000000000000000000001020000000000000000000000000000000100000000000000000001000000000000080000000000000100000000000000000000000000",
      "type": "0x2",
      "transactionHash": "0x6b725290cb7eb1275f7e23cd89534a803c1960850a00206afa21d7184e1e57d5",
      "transactionIndex": "0x5",
      "blockHash": "0x88f5039a68cc5d7d82a56ec6af85dc8b0b66180e07478b5a7ff4455e1938b94d",
      "blockNumber": "0x12473a7",
      "gasUsed": "0x22532",
      "effectiveGasPrice": "0xf6a4d",
      "from": "0xc1200b5147ba1a0348b8462d00d237016945dfff",
      "to": "0x5ff137d4b0fdcd49dca30c7cf57e578a026d2789",
      "contractAddress": null,
      "l1BaseFeeScalar": "0x1db0",
      "l1BlobBaseFee": "0x1",
      "l1BlobBaseFeeScalar": "0xd2730",
      "l1Fee": "0x7f4baec4c",
      "l1GasPrice": "0x3931c2e0",
      "l1GasUsed": "0x124d"
    }
  ],
  "libraries": [],
  "pending": [],
  "returns": {},
  "timestamp": 1730134785,
  "chain": 11155420,
  "commit": "47864ce"
}