{
  "transactions": [
    {
      "hash": "0x94aa3bd3f9815c6cc9b00a76112f324ffaf3339f596e4aa2fba1ce892f22b6d0",
      "transactionType": "CALL",
      "contractName": null,
      "contractAddress": "0x5ff137d4b0fdcd49dca30c7cf57e578a026d2789",
      "function": "handleOps((address,uint256,bytes,bytes,uint256,uint256,uint256,uint256,uint256,bytes,bytes)[],address)",
      "arguments": [
        "[(0x2cdECc2C3FEA2B68949169d0eFA84D9517d05326, 155930327655066839810049, 0x, 0x2c2abd1e00000000000000000000000000000000000000000000000000000000000000200000000000000000000000000000000000000000000000000000000000000001000000000000000000000000000000000000000000000000000000000000002000000000000000000000000000000000000000000000000000000000000000240f0f3f2400000000000000000000000005d7e9c726af8a59726cb2a08230041ff933659c00000000000000000000000000000000000000000000000000000000, 10000000, 10000000, 0, 0, 0, 0x576f2803354d05c67425610f4d9b1068ce723c76, 0x0000000000000000000000000000000000000000000000000000000000000020000000000000000000000000000000000000000000000000000000000000000000000000000000000000000000000000000000000000000000000000000000400000000000000000000000000000000000000000000000000000000000000041c55d4de73f96553e8ac4eb690cf61d87ed02a7281cb593684d0a873fdbbdea3e32f8fd2125157fcc33eca856015a09a9a0e1453d26410adcd12bf51bbbec77571c00000000000000000000000000000000000000000000000000000000000000)]",
        "0x2cdECc2C3FEA2B68949169d0eFA84D9517d05326"
      ],
      "transaction": {
        "from": "0xc1200b5147ba1a0348b8462d00d237016945dfff",
        "to": "0x5ff137d4b0fdcd49dca30c7cf57e578a026d2789",
        "value": "0x0",
        "input": "0x1fad948c00000000000000000000000000000000000000000000000000000000000000400000000000000000000000002cdecc2c3fea2b68949169d0efa84d9517d05326000000000000000000000000000000000000000000000000000000000000000100000000000000000000000000000000000000000000000000000000000000200000000000000000000000002cdecc2c3fea2b68949169d0efa84d9517d0532600000000000000000000000000000000000000000000210500000000000000010000000000000000000000000000000000000000000000000000000000000160000000000000000000000000000000000000000000000000000000000000018000000000000000000000000000000000000000000000000000000000009896800000000000000000000000000000000000000000000000000000000000989680000000000000000000000000000000000000000000000000000000000000000000000000000000000000000000000000000000000000000000000000000000000000000000000000000000000000000000000000000000000000000000000000000000000000000000000000000000000000000000000000000000000000028000000000000000000000000000000000000000000000000000000000000002c0000000000000000000000000000000000000000000000000000000000000000000000000000000000000000000000000000000000000000000000000000000c42c2abd1e00000000000000000000000000000000000000000000000000000000000000200000000000000000000000000000000000000000000000000000000000000001000000000000000000000000000000000000000000000000000000000000002000000000000000000000000000000000000000000000000000000000000000240f0f3f2400000000000000000000000005d7e9c726af8a59726cb2a08230041ff933659c00000000000000000000000000000000000000000000000000000000000000000000000000000000000000000000000000000000000000000000000000000000000000000000000000000000000000000000000000000014576f2803354d05c67425610f4d9b1068ce723c7600000000000000000000000000000000000000000000000000000000000000000000000000000000000000e00000000000000000000000000000000000000000000000000000000000000020000000000000000000000000000000000000000000000000000000000000000000000000000000000000000000000000000000000000000000000000000000400000000000000000000000000000000000000000000000000000000000000041c55d4de73f96553e8ac4eb690cf61d87ed02a7281cb593684d0a873fdbbdea3e32f8fd2125157fcc33eca856015a09a9a0e1453d26410adcd12bf51bbbec77571c00000000000000000000000000000000000000000000000000000000000000",
        "nonce": "0x33",
        "chainId": "0xaa37dc"
      },
      "additionalContracts": [],
      "isFixedGasLimit": false
    }
  ],
  "receipts": [
    {
      "status": "0x1",
      "cumulativeGasUsed": "0x3c6c9",
      "logs": [
        {
          "address": "0x4de3fbb6df50a7e6dbeef948dffc1e38beceb72c",
          "topics": [
            "0x58d54a183ecca20b3ab42203e6af3cd7b55bf2e7e93cbfa16ca7aff9fbb7228c",
            "0x0000000000000000000000002cdecc2c3fea2b68949169d0efa84d9517d05326"
          ],
          "data": "0x00000000000000000000000000000000000000000000000000000000000000200000000000000000000000002cdecc2c3fea2b68949169d0efa84d9517d0532600000000000000000000000000000000000000000000210500000000000000010000000000000000000000000000000000000000000000000000000000000160000000000000000000000000000000000000000000000000000000000000018000000000000000000000000000000000000000000000000000000000009896800000000000000000000000000000000000000000000000000000000000989680000000000000000000000000000000000000000000000000000000000000000000000000000000000000000000000000000000000000000000000000000000000000000000000000000000000000000000000000000000000000000000000000000000000000000000000000000000000000000000000000000000000000028000000000000000000000000000000000000000000000000000000000000002c0000000000000000000000000000000000000000000000000000000000000000000000000000000000000000000000000000000000000000000000000000000c42c2abd1e00000000000000000000000000000000000000000000000000000000000000200000000000000000000000000000000000000000000000000000000000000001000000000000000000000000000000000000000000000000000000000000002000000000000000000000000000000000000000000000000000000000000000240f0f3f2400000000000000000000000005d7e9c726af8a59726cb2a08230041ff933659c00000000000000000000000000000000000000000000000000000000000000000000000000000000000000000000000000000000000000000000000000000000000000000000000000000000000000000000000000000014576f2803354d05c67425610f4d9b1068ce723c7600000000000000000000000000000000000000000000000000000000000000000000000000000000000000e00000000000000000000000000000000000000000000000000000000000000020000000000000000000000000000000000000000000000000000000000000000000000000000000000000000000000000000000000000000000000000000000400000000000000000000000000000000000000000000000000000000000000041c55d4de73f96553e8ac4eb690cf61d87ed02a7281cb593684d0a873fdbbdea3e32f8fd2125157fcc33eca856015a09a9a0e1453d26410adcd12bf51bbbec77571c00000000000000000000000000000000000000000000000000000000000000",
          "blockHash": "0x24399f9503547d5f6fe9b62f81cbf7c3b5a3c1ae658d86344a5e9fdd0a07cbf7",
          "blockNumber": "0x1247342",
          "transactionHash": "0x94aa3bd3f9815c6cc9b00a76112f324ffaf3339f596e4aa2fba1ce892f22b6d0",
          "transactionIndex": "0x1",
          "logIndex": "0x0",
          "removed": false
        },
        {
          "address": "0x5ff137d4b0fdcd49dca30c7cf57e578a026d2789",
          "topics": [
            "0xbb47ee3e183a558b1a2ff0874b079f3fc5478b7454eacf2bfc5af2ff5878f972"
          ],
          "data": "0x",
          "blockHash": "0x24399f9503547d5f6fe9b62f81cbf7c3b5a3c1ae658d86344a5e9fdd0a07cbf7",
          "blockNumber": "0x1247342",
          "transactionHash": "0x94aa3bd3f9815c6cc9b00a76112f324ffaf3339f596e4aa2fba1ce892f22b6d0",
          "transactionIndex": "0x1",
          "logIndex": "0x1",
          "removed": false
        },
        {
          "address": "0x2cdecc2c3fea2b68949169d0efa84d9517d05326",
          "topics": [
            "0x38109edc26e166b5579352ce56a50813177eb25208fd90d61f2f378386220220",
            "0x0000000000000000000000000000000000000000000000000000000000000002"
          ],
          "data": "0x0000000000000000000000000000000000000000000000000000000000000020000000000000000000000000000000000000000000000000000000000000002000000000000000000000000005d7e9c726af8a59726cb2a08230041ff933659c",
          "blockHash": "0x24399f9503547d5f6fe9b62f81cbf7c3b5a3c1ae658d86344a5e9fdd0a07cbf7",
          "blockNumber": "0x1247342",
          "transactionHash": "0x94aa3bd3f9815c6cc9b00a76112f324ffaf3339f596e4aa2fba1ce892f22b6d0",
          "transactionIndex": "0x1",
          "logIndex": "0x2",
          "removed": false
        },
        {
          "address": "0x5ff137d4b0fdcd49dca30c7cf57e578a026d2789",
          "topics": [
            "0x49628fd1471006c1482da88028e9ce4dbb080b815c9b0344d39e5a8e6ec1419f",
            "0x5fea5004fb53b8c9226bf56db43876530f58df1e465bdc0229bfa214c26165b4",
            "0x0000000000000000000000002cdecc2c3fea2b68949169d0efa84d9517d05326",
            "0x000000000000000000000000576f2803354d05c67425610f4d9b1068ce723c76"
          ],
          "data": "0x0000000000000000000000000000000000000000000021050000000000000001000000000000000000000000000000000000000000000000000000000000000100000000000000000000000000000000000000000000000000000000000000000000000000000000000000000000000000000000000000000000000000027dd8",
          "blockHash": "0x24399f9503547d5f6fe9b62f81cbf7c3b5a3c1ae658d86344a5e9fdd0a07cbf7",
          "blockNumber": "0x1247342",
          "transactionHash": "0x94aa3bd3f9815c6cc9b00a76112f324ffaf3339f596e4aa2fba1ce892f22b6d0",
          "transactionIndex": "0x1",
          "logIndex": "0x3",
          "removed": false
        }
      ],
      "logsBloom": "0x040000000000000000000004000000000000000000000000000000000000000000080000000000002002400100000001001000000000000000000200000000000000000000000000000000000000000000000000000000000000000080000000000000000c0004000000000000000010000000000000000000000000000000008000100000000010000000000000000000000000000000004000000000000000000000000000000000400100000000000000000020000000000002000000000000000000000000800001420000000000000000004000000000000100000000000000800000000000000000080000000000000100008000000000000000000000",
      "type": "0x2",
      "transactionHash": "0x94aa3bd3f9815c6cc9b00a76112f324ffaf3339f596e4aa2fba1ce892f22b6d0",
      "transactionIndex": "0x1",
      "blockHash": "0x24399f9503547d5f6fe9b62f81cbf7c3b5a3c1ae658d86344a5e9fdd0a07cbf7",
      "blockNumber": "0x1247342",
      "gasUsed": "0x31b96",
      "effectiveGasPrice": "0xf6a4d",
      "from": "0xc1200b5147ba1a0348b8462d00d237016945dfff",
      "to": "0x5ff137d4b0fdcd49dca30c7cf57e578a026d2789",
      "contractAddress": null,
      "l1BaseFeeScalar": "0x1db0",
      "l1BlobBaseFee": "0x1",
      "l1BlobBaseFeeScalar": "0xd2730",
      "l1Fee": "0x7b963d9ff",
      "l1GasPrice": "0x37d8d944",
      "l1GasUsed": "0x1232"
    }
  ],
  "libraries": [],
  "pending": [],
  "returns": {},
  "timestamp": 1730134582,
  "chain": 11155420,
  "commit": "47864ce"
}