{
  "transactions": [
    {
      "hash": null,
      "transactionType": "CALL",
      "contractName": null,
      "contractAddress": "0x5ff137d4b0fdcd49dca30c7cf57e578a026d2789",
      "function": "handleOps((address,uint256,bytes,bytes,uint256,uint256,uint256,uint256,uint256,bytes,bytes)[],address)",
      "arguments": [
        "[(0x2cdECc2C3FEA2B68949169d0eFA84D9517d05326, 155930327655066839810051, 0x, 0x2c2abd1e00000000000000000000000000000000000000000000000000000000000000200000000000000000000000000000000000000000000000000000000000000001000000000000000000000000000000000000000000000000000000000000002000000000000000000000000000000000000000000000000000000000000000240f0f3f240000000000000000000000000397b15451ad09c5e7fd851bcc1315462ac72c2f00000000000000000000000000000000000000000000000000000000, 10000000, 10000000, 0, 0, 0, 0x576f2803354d05c67425610f4d9b1068ce723c76, 0x00000000000000000000000000000000000000000000000000000000000000200000000000000000000000000000000000000000000000000000000000000000000000000000000000000000000000000000000000000000000000000000004000000000000000000000000000000000000000000000000000000000000000410ee1a1e0cfcd34ea9849772789de59fdb982cb751926982035a26f5cf944bac26da1463fa27712d5baef729820de98b33b08f38f92f5c8001ff2771f82b8dd0b1c00000000000000000000000000000000000000000000000000000000000000)]",
        "0x2cdECc2C3FEA2B68949169d0eFA84D9517d05326"
      ],
      "transaction": {
        "from": "0x05d7e9c726af8a59726cb2a08230041ff933659c",
        "to": "0x5ff137d4b0fdcd49dca30c7cf57e578a026d2789",
        "value": "0x0",
        "input": "0x1fad948c00000000000000000000000000000000000000000000000000000000000000400000000000000000000000002cdecc2c3fea2b68949169d0efa84d9517d05326000000000000000000000000000000000000000000000000000000000000000100000000000000000000000000000000000000000000000000000000000000200000000000000000000000002cdecc2c3fea2b68949169d0efa84d9517d0532600000000000000000000000000000000000000000000210500000000000000030000000000000000000000000000000000000000000000000000000000000160000000000000000000000000000000000000000000000000000000000000018000000000000000000000000000000000000000000000000000000000009896800000000000000000000000000000000000000000000000000000000000989680000000000000000000000000000000000000000000000000000000000000000000000000000000000000000000000000000000000000000000000000000000000000000000000000000000000000000000000000000000000000000000000000000000000000000000000000000000000000000000000000000000000000028000000000000000000000000000000000000000000000000000000000000002c0000000000000000000000000000000000000000000000000000000000000000000000000000000000000000000000000000000000000000000000000000000c42c2abd1e00000000000000000000000000000000000000000000000000000000000000200000000000000000000000000000000000000000000000000000000000000001000000000000000000000000000000000000000000000000000000000000002000000000000000000000000000000000000000000000000000000000000000240f0f3f240000000000000000000000000397b15451ad09c5e7fd851bcc1315462ac72c2f00000000000000000000000000000000000000000000000000000000000000000000000000000000000000000000000000000000000000000000000000000000000000000000000000000000000000000000000000000014576f2803354d05c67425610f4d9b1068ce723c7600000000000000000000000000000000000000000000000000000000000000000000000000000000000000e000000000000000000000000000000000000000000000000000000000000000200000000000000000000000000000000000000000000000000000000000000000000000000000000000000000000000000000000000000000000000000000004000000000000000000000000000000000000000000000000000000000000000410ee1a1e0cfcd34ea9849772789de59fdb982cb751926982035a26f5cf944bac26da1463fa27712d5baef729820de98b33b08f38f92f5c8001ff2771f82b8dd0b1c00000000000000000000000000000000000000000000000000000000000000",
        "nonce": "0x0",
        "chainId": "0xaa37dc"
      },
      "additionalContracts": [],
      "isFixedGasLimit": false
    }
  ],
  "receipts": [],
  "libraries": [],
  "pending": [],
  "returns": {},
  "timestamp": 1730135228,
  "chain": 11155420,
  "commit": "47864ce"
}