{
  "transactions": [
    {
      "hash": "0x3a06b8deed8feda60bae5a06e8f4c1f44faf1f708c3ee649ec57f829c55e90cf",
      "transactionType": "CALL",
      "contractName": null,
      "contractAddress": "0x5ff137d4b0fdcd49dca30c7cf57e578a026d2789",
      "function": "handleOps((address,uint256,bytes,bytes,uint256,uint256,uint256,uint256,uint256,bytes,bytes)[],address)",
      "arguments": [
        "[(0x2cdECc2C3FEA2B68949169d0eFA84D9517d05326, 155930327655066839810052, 0x, 0x2c2abd1e00000000000000000000000000000000000000000000000000000000000000200000000000000000000000000000000000000000000000000000000000000001000000000000000000000000000000000000000000000000000000000000002000000000000000000000000000000000000000000000000000000000000000240f0f3f240000000000000000000000005ad3b55625553cef54d7561cd256658537d54aad00000000000000000000000000000000000000000000000000000000, 10000000, 10000000, 1, 1, 1, 0x576f2803354d05c67425610f4d9b1068ce723c7600000000000000000000000000000000000000000000000000000000000000200000000000000000000000000000000000000000000000000000000000000000, 0x00000000000000000000000000000000000000000000000000000000000000200000000000000000000000000000000000000000000000000000000000000000000000000000000000000000000000000000000000000000000000000000004000000000000000000000000000000000000000000000000000000000000000414c0333c3a59200ef87047828883175ec5cca4fb0adc6ee28e9b5a2af289477855d764d0d1ba3720b6f9821d68be768aa9f8618be61d00b2103968b7d7c5b74631c00000000000000000000000000000000000000000000000000000000000000)]",
        "0x2cdECc2C3FEA2B68949169d0eFA84D9517d05326"
      ],
      "transaction": {
        "from": "0xc1200b5147ba1a0348b8462d00d237016945dfff",
        "to": "0x5ff137d4b0fdcd49dca30c7cf57e578a026d2789",
        "value": "0x0",
        "input": "0x1fad948c00000000000000000000000000000000000000000000000000000000000000400000000000000000000000002cdecc2c3fea2b68949169d0efa84d9517d05326000000000000000000000000000000000000000000000000000000000000000100000000000000000000000000000000000000000000000000000000000000200000000000000000000000002cdecc2c3fea2b68949169d0efa84d9517d053260000000000000000000000000000000000000000000021050000000000000004000000000000000000000000000000000000000000000000000000000000016000000000000000000000000000000000000000000000000000000000000001800000000000000000000000000000000000000000000000000000000000989680000000000000000000000000000000000000000000000000000000000098968000000000000000000000000000000000000000000000000000000000000000010000000000000000000000000000000000000000000000000000000000000001000000000000000000000000000000000000000000000000000000000000000100000000000000000000000000000000000000000000000000000000000002800000000000000000000000000000000000000000000000000000000000000300000000000000000000000000000000000000000000000000000000000000000000000000000000000000000000000000000000000000000000000000000000c42c2abd1e00000000000000000000000000000000000000000000000000000000000000200000000000000000000000000000000000000000000000000000000000000001000000000000000000000000000000000000000000000000000000000000002000000000000000000000000000000000000000000000000000000000000000240f0f3f240000000000000000000000005ad3b55625553cef54d7561cd256658537d54aad00000000000000000000000000000000000000000000000000000000000000000000000000000000000000000000000000000000000000000000000000000000000000000000000000000000000000000000000000000054576f2803354d05c67425610f4d9b1068ce723c760000000000000000000000000000000000000000000000000000000000000020000000000000000000000000000000000000000000000000000000000000000000000000000000000000000000000000000000000000000000000000000000000000000000000000000000e000000000000000000000000000000000000000000000000000000000000000200000000000000000000000000000000000000000000000000000000000000000000000000000000000000000000000000000000000000000000000000000004000000000000000000000000000000000000000000000000000000000000000414c0333c3a59200ef87047828883175ec5cca4fb0adc6ee28e9b5a2af289477855d764d0d1ba3720b6f9821d68be768aa9f8618be61d00b2103968b7d7c5b74631c00000000000000000000000000000000000000000000000000000000000000",
        "nonce": "0x37",
        "chainId": "0xaa37dc"
      },
      "additionalContracts": [],
      "isFixedGasLimit": false
    }
  ],
  "receipts": [
    {
      "status": "0x1",
      "cumulativeGasUsed": "0x56d9e",
      "logs": [
        {
          "address": "0x4de3fbb6df50a7e6dbeef948dffc1e38beceb72c",
          "topics": [
            "0x58d54a183ecca20b3ab42203e6af3cd7b55bf2e7e93cbfa16ca7aff9fbb7228c",
            "0x0000000000000000000000002cdecc2c3fea2b68949169d0efa84d9517d05326"
          ],
          "data": "0x00000000000000000000000000000000000000000000000000000000000000200000000000000000000000002cdecc2c3fea2b68949169d0efa84d9517d053260000000000000000000000000000000000000000000021050000000000000004000000000000000000000000000000000000000000000000000000000000016000000000000000000000000000000000000000000000000000000000000001800000000000000000000000000000000000000000000000000000000000989680000000000000000000000000000000000000000000000000000000000098968000000000000000000000000000000000000000000000000000000000000000010000000000000000000000000000000000000000000000000000000000000001000000000000000000000000000000000000000000000000000000000000000100000000000000000000000000000000000000000000000000000000000002800000000000000000000000000000000000000000000000000000000000000300000000000000000000000000000000000000000000000000000000000000000000000000000000000000000000000000000000000000000000000000000000c42c2abd1e00000000000000000000000000000000000000000000000000000000000000200000000000000000000000000000000000000000000000000000000000000001000000000000000000000000000000000000000000000000000000000000002000000000000000000000000000000000000000000000000000000000000000240f0f3f240000000000000000000000005ad3b55625553cef54d7561cd256658537d54aad00000000000000000000000000000000000000000000000000000000000000000000000000000000000000000000000000000000000000000000000000000000000000000000000000000000000000000000000000000054576f2803354d05c67425610f4d9b1068ce723c760000000000000000000000000000000000000000000000000000000000000020000000000000000000000000000000000000000000000000000000000000000000000000000000000000000000000000000000000000000000000000000000000000000000000000000000e000000000000000000000000000000000000000000000000000000000000000200000000000000000000000000000000000000000000000000000000000000000000000000000000000000000000000000000000000000000000000000000004000000000000000000000000000000000000000000000000000000000000000414c0333c3a59200ef87047828883175ec5cca4fb0adc6ee28e9b5a2af289477855d764d0d1ba3720b6f9821d68be768aa9f8618be61d00b2103968b7d7c5b74631c00000000000000000000000000000000000000000000000000000000000000",
          "blockHash": "0xe41d147afd4bb3291d6ae83c542e69d22940ad52d28e1c18bf8a7635b636aeb5",
          "blockNumber": "0x1248f35",
          "transactionHash": "0x3a06b8deed8feda60bae5a06e8f4c1f44faf1f708c3ee649ec57f829c55e90cf",
          "transactionIndex": "0x2",
          "logIndex": "0x4",
          "removed": false
        },
        {
          "address": "0x5ff137d4b0fdcd49dca30c7cf57e578a026d2789",
          "topics": [
            "0xbb47ee3e183a558b1a2ff0874b079f3fc5478b7454eacf2bfc5af2ff5878f972"
          ],
          "data": "0x",
          "blockHash": "0xe41d147afd4bb3291d6ae83c542e69d22940ad52d28e1c18bf8a7635b636aeb5",
          "blockNumber": "0x1248f35",
          "transactionHash": "0x3a06b8deed8feda60bae5a06e8f4c1f44faf1f708c3ee649ec57f829c55e90cf",
          "transactionIndex": "0x2",
          "logIndex": "0x5",
          "removed": false
        },
        {
          "address": "0x2cdecc2c3fea2b68949169d0efa84d9517d05326",
          "topics": [
            "0x38109edc26e166b5579352ce56a50813177eb25208fd90d61f2f378386220220",
            "0x0000000000000000000000000000000000000000000000000000000000000004"
          ],
          "data": "0x000000000000000000000000000000000000000000000000000000000000002000000000000000000000000000000000000000000000000000000000000000200000000000000000000000005ad3b55625553cef54d7561cd256658537d54aad",
          "blockHash": "0xe41d147afd4bb3291d6ae83c542e69d22940ad52d28e1c18bf8a7635b636aeb5",
          "blockNumber": "0x1248f35",
          "transactionHash": "0x3a06b8deed8feda60bae5a06e8f4c1f44faf1f708c3ee649ec57f829c55e90cf",
          "transactionIndex": "0x2",
          "logIndex": "0x6",
          "removed": false
        },
        {
          "address": "0x5ff137d4b0fdcd49dca30c7cf57e578a026d2789",
          "topics": [
            "0x49628fd1471006c1482da88028e9ce4dbb080b815c9b0344d39e5a8e6ec1419f",
            "0x2bd92d5b8998ab4df019f291dd8329df1ce37e7bc5fac24e5eb9729c4dc87f09",
            "0x0000000000000000000000002cdecc2c3fea2b68949169d0efa84d9517d05326",
            "0x000000000000000000000000576f2803354d05c67425610f4d9b1068ce723c76"
          ],
          "data": "0x000000000000000000000000000000000000000000002105000000000000000400000000000000000000000000000000000000000000000000000000000000010000000000000000000000000000000000000000000000000000000000028b240000000000000000000000000000000000000000000000000000000000028b24",
          "blockHash": "0xe41d147afd4bb3291d6ae83c542e69d22940ad52d28e1c18bf8a7635b636aeb5",
          "blockNumber": "0x1248f35",
          "transactionHash": "0x3a06b8deed8feda60bae5a06e8f4c1f44faf1f708c3ee649ec57f829c55e90cf",
          "transactionIndex": "0x2",
          "logIndex": "0x7",
          "removed": false
        }
      ],
      "logsBloom": "0x000000000000000000000004000000000000000000000000000000000000000000080000000000002002000100000001001000000000000000000200010000000000000000000000000000000000000000000020000000000000000000000000080000000c0004000000000000000010000000000000000000000000000000008000100000000010000000000000000000000000000000004000000000000000000000000000000000400000000000000000000020000000002002000000000000000000000000800001420040000000000000008000000000000100000000000000800000000000000000080000000000000100000000000000000000000000",
      "type": "0x2",
      "transactionHash": "0x3a06b8deed8feda60bae5a06e8f4c1f44faf1f708c3ee649ec57f829c55e90cf",
      "transactionIndex": "0x2",
      "blockHash": "0xe41d147afd4bb3291d6ae83c542e69d22940ad52d28e1c18bf8a7635b636aeb5",
      "blockNumber": "0x1248f35",
      "gasUsed": "0x34425",
      "effectiveGasPrice": "0xf433b",
      "from": "0xc1200b5147ba1a0348b8462d00d237016945dfff",
      "to": "0x5ff137d4b0fdcd49dca30c7cf57e578a026d2789",
      "contractAddress": null,
      "l1BaseFeeScalar": "0x1db0",
      "l1BlobBaseFee": "0x1",
      "l1BlobBaseFeeScalar": "0xd2730",
      "l1Fee": "0x664965a2d",
      "l1GasPrice": "0x2cce5128",
      "l1GasUsed": "0x12c6"
    }
  ],
  "libraries": [],
  "pending": [],
  "returns": {},
  "timestamp": 1730148892,
  "chain": 11155420,
  "commit": "47864ce"
}