{
  "transactions": [
    {
      "hash": "0x129fb9fe9e579659cc246747bbf163b87d4a1eaed4f8a67f5f4ae4fec69e5a16",
      "transactionType": "CALL",
      "contractName": null,
      "contractAddress": "0x5ff137d4b0fdcd49dca30c7cf57e578a026d2789",
      "function": "handleOps((address,uint256,bytes,bytes,uint256,uint256,uint256,uint256,uint256,bytes,bytes)[],address)",
      "arguments": [
        "[(0x2cdECc2C3FEA2B68949169d0eFA84D9517d05326, 155930327655066839810048, 0x, 0x2c2abd1e00000000000000000000000000000000000000000000000000000000000000200000000000000000000000000000000000000000000000000000000000000001000000000000000000000000000000000000000000000000000000000000002000000000000000000000000000000000000000000000000000000000000000240f0f3f24000000000000000000000000a0e957da81f77cf39596bfaa0170b7f7fb7cae0500000000000000000000000000000000000000000000000000000000, 10000000, 10000000, 0, 0, 0, 0x576f2803354d05c67425610f4d9b1068ce723c76, 0x0000000000000000000000000000000000000000000000000000000000000020000000000000000000000000000000000000000000000000000000000000000000000000000000000000000000000000000000000000000000000000000000400000000000000000000000000000000000000000000000000000000000000041bad78e26fdbff22b5395acd2cc4d413a2cc2959231d7e0c03371e4e672a246e7489ab9057e43ef414078f60401a9ac8b3df7f56c41895e05c21379f3709858521c00000000000000000000000000000000000000000000000000000000000000)]",
        "0x2cdECc2C3FEA2B68949169d0eFA84D9517d05326"
      ],
      "transaction": {
        "from": "0xc1200b5147ba1a0348b8462d00d237016945dfff",
        "to": "0x5ff137d4b0fdcd49dca30c7cf57e578a026d2789",
        "value": "0x0",
        "input": "0x1fad948c00000000000000000000000000000000000000000000000000000000000000400000000000000000000000002cdecc2c3fea2b68949169d0efa84d9517d05326000000000000000000000000000000000000000000000000000000000000000100000000000000000000000000000000000000000000000000000000000000200000000000000000000000002cdecc2c3fea2b68949169d0efa84d9517d0532600000000000000000000000000000000000000000000210500000000000000000000000000000000000000000000000000000000000000000000000000000160000000000000000000000000000000000000000000000000000000000000018000000000000000000000000000000000000000000000000000000000009896800000000000000000000000000000000000000000000000000000000000989680000000000000000000000000000000000000000000000000000000000000000000000000000000000000000000000000000000000000000000000000000000000000000000000000000000000000000000000000000000000000000000000000000000000000000000000000000000000000000000000000000000000000028000000000000000000000000000000000000000000000000000000000000002c0000000000000000000000000000000000000000000000000000000000000000000000000000000000000000000000000000000000000000000000000000000c42c2abd1e00000000000000000000000000000000000000000000000000000000000000200000000000000000000000000000000000000000000000000000000000000001000000000000000000000000000000000000000000000000000000000000002000000000000000000000000000000000000000000000000000000000000000240f0f3f24000000000000000000000000a0e957da81f77cf39596bfaa0170b7f7fb7cae0500000000000000000000000000000000000000000000000000000000000000000000000000000000000000000000000000000000000000000000000000000000000000000000000000000000000000000000000000000014576f2803354d05c67425610f4d9b1068ce723c7600000000000000000000000000000000000000000000000000000000000000000000000000000000000000e00000000000000000000000000000000000000000000000000000000000000020000000000000000000000000000000000000000000000000000000000000000000000000000000000000000000000000000000000000000000000000000000400000000000000000000000000000000000000000000000000000000000000041bad78e26fdbff22b5395acd2cc4d413a2cc2959231d7e0c03371e4e672a246e7489ab9057e43ef414078f60401a9ac8b3df7f56c41895e05c21379f3709858521c00000000000000000000000000000000000000000000000000000000000000",
        "nonce": "0x32",
        "chainId": "0xaa37dc"
      },
      "additionalContracts": [],
      "isFixedGasLimit": false
    }
  ],
  "receipts": [
    {
      "status": "0x1",
      "cumulativeGasUsed": "0x5627b",
      "logs": [
        {
          "address": "0x4de3fbb6df50a7e6dbeef948dffc1e38beceb72c",
          "topics": [
            "0x58d54a183ecca20b3ab42203e6af3cd7b55bf2e7e93cbfa16ca7aff9fbb7228c",
            "0x0000000000000000000000002cdecc2c3fea2b68949169d0efa84d9517d05326"
          ],
          "data": "0x00000000000000000000000000000000000000000000000000000000000000200000000000000000000000002cdecc2c3fea2b68949169d0efa84d9517d0532600000000000000000000000000000000000000000000210500000000000000000000000000000000000000000000000000000000000000000000000000000160000000000000000000000000000000000000000000000000000000000000018000000000000000000000000000000000000000000000000000000000009896800000000000000000000000000000000000000000000000000000000000989680000000000000000000000000000000000000000000000000000000000000000000000000000000000000000000000000000000000000000000000000000000000000000000000000000000000000000000000000000000000000000000000000000000000000000000000000000000000000000000000000000000000000028000000000000000000000000000000000000000000000000000000000000002c0000000000000000000000000000000000000000000000000000000000000000000000000000000000000000000000000000000000000000000000000000000c42c2abd1e00000000000000000000000000000000000000000000000000000000000000200000000000000000000000000000000000000000000000000000000000000001000000000000000000000000000000000000000000000000000000000000002000000000000000000000000000000000000000000000000000000000000000240f0f3f24000000000000000000000000a0e957da81f77cf39596bfaa0170b7f7fb7cae0500000000000000000000000000000000000000000000000000000000000000000000000000000000000000000000000000000000000000000000000000000000000000000000000000000000000000000000000000000014576f2803354d05c67425610f4d9b1068ce723c7600000000000000000000000000000000000000000000000000000000000000000000000000000000000000e00000000000000000000000000000000000000000000000000000000000000020000000000000000000000000000000000000000000000000000000000000000000000000000000000000000000000000000000000000000000000000000000400000000000000000000000000000000000000000000000000000000000000041bad78e26fdbff22b5395acd2cc4d413a2cc2959231d7e0c03371e4e672a246e7489ab9057e43ef414078f60401a9ac8b3df7f56c41895e05c21379f3709858521c00000000000000000000000000000000000000000000000000000000000000",
          "blockHash": "0x2012543da3268303650a9421b6849ff8e2e5618ac53ba28fe42b0ff26e84ea45",
          "blockNumber": "0x121e7b8",
          "transactionHash": "0x129fb9fe9e579659cc246747bbf163b87d4a1eaed4f8a67f5f4ae4fec69e5a16",
          "transactionIndex": "0x2",
          "logIndex": "0x2",
          "removed": false
        },
        {
          "address": "0x5ff137d4b0fdcd49dca30c7cf57e578a026d2789",
          "topics": [
            "0xbb47ee3e183a558b1a2ff0874b079f3fc5478b7454eacf2bfc5af2ff5878f972"
          ],
          "data": "0x",
          "blockHash": "0x2012543da3268303650a9421b6849ff8e2e5618ac53ba28fe42b0ff26e84ea45",
          "blockNumber": "0x121e7b8",
          "transactionHash": "0x129fb9fe9e579659cc246747bbf163b87d4a1eaed4f8a67f5f4ae4fec69e5a16",
          "transactionIndex": "0x2",
          "logIndex": "0x3",
          "removed": false
        },
        {
          "address": "0x2cdecc2c3fea2b68949169d0efa84d9517d05326",
          "topics": [
            "0x38109edc26e166b5579352ce56a50813177eb25208fd90d61f2f378386220220",
            "0x0000000000000000000000000000000000000000000000000000000000000001"
          ],
          "data": "0x00000000000000000000000000000000000000000000000000000000000000200000000000000000000000000000000000000000000000000000000000000020000000000000000000000000a0e957da81f77cf39596bfaa0170b7f7fb7cae05",
          "blockHash": "0x2012543da3268303650a9421b6849ff8e2e5618ac53ba28fe42b0ff26e84ea45",
          "blockNumber": "0x121e7b8",
          "transactionHash": "0x129fb9fe9e579659cc246747bbf163b87d4a1eaed4f8a67f5f4ae4fec69e5a16",
          "transactionIndex": "0x2",
          "logIndex": "0x4",
          "removed": false
        },
        {
          "address": "0x5ff137d4b0fdcd49dca30c7cf57e578a026d2789",
          "topics": [
            "0x49628fd1471006c1482da88028e9ce4dbb080b815c9b0344d39e5a8e6ec1419f",
            "0x9b0329a2f3b01fd73fa669ccafe57177d15ba85b3dc2d7fbccfcca50b1a89a82",
            "0x0000000000000000000000002cdecc2c3fea2b68949169d0efa84d9517d05326",
            "0x000000000000000000000000576f2803354d05c67425610f4d9b1068ce723c76"
          ],
          "data": "0x000000000000000000000000000000000000000000002105000000000000000000000000000000000000000000000000000000000000000000000000000000010000000000000000000000000000000000000000000000000000000000000000000000000000000000000000000000000000000000000000000000000002c0a4",
          "blockHash": "0x2012543da3268303650a9421b6849ff8e2e5618ac53ba28fe42b0ff26e84ea45",
          "blockNumber": "0x121e7b8",
          "transactionHash": "0x129fb9fe9e579659cc246747bbf163b87d4a1eaed4f8a67f5f4ae4fec69e5a16",
          "transactionIndex": "0x2",
          "logIndex": "0x5",
          "removed": false
        }
      ],
      "logsBloom": "0x000000000000000000000004000000000000000000000400000000000000000000080000000000002002000100000001001000000000000000000200000400000200000000000000000000000000000000000000800400000000000000000000000000000c0004000000000000000010000000000000000000000000000000008000100000000010000000000000000000000000000000004000000000000000000000000000000000400000000000000000000020000000000002000000000000000000000000800001420000000000000000000000000000000100000040000000800000000000000000080000000000000100000000000000000000000000",
      "type": "0x2",
      "transactionHash": "0x129fb9fe9e579659cc246747bbf163b87d4a1eaed4f8a67f5f4ae4fec69e5a16",
      "transactionIndex": "0x2",
      "blockHash": "0x2012543da3268303650a9421b6849ff8e2e5618ac53ba28fe42b0ff26e84ea45",
      "blockNumber": "0x121e7b8",
      "gasUsed": "0x35e56",
      "effectiveGasPrice": "0xf6a4d",
      "from": "0xc1200b5147ba1a0348b8462d00d237016945dfff",
      "to": "0x5ff137d4b0fdcd49dca30c7cf57e578a026d2789",
      "contractAddress": null,
      "l1BaseFeeScalar": "0x1db0",
      "l1BlobBaseFee": "0x7223341d4",
      "l1BlobBaseFeeScalar": "0xd2730",
      "l1Fee": "0x6f437cd548f",
      "l1GasPrice": "0xbfdee",
      "l1GasUsed": "0x1218"
    }
  ],
  "libraries": [],
  "pending": [],
  "returns": {},
  "timestamp": 1729800995,
  "chain": 11155420,
  "commit": "47864ce"
}