{
  "transactions": [
    {
      "hash": "0xb6f5875177dd6556fac0258dc28a7fe7d962dfc3a97c62594cb3c131f20ecd03",
      "transactionType": "CALL",
      "contractName": null,
      "contractAddress": "0x5ff137d4b0fdcd49dca30c7cf57e578a026d2789",
      "function": "handleOps((address,uint256,bytes,bytes,uint256,uint256,uint256,uint256,uint256,bytes,bytes)[],address)",
      "arguments": [
        "[(0x2cdECc2C3FEA2B68949169d0eFA84D9517d05326, 155930327655066839810051, 0x, 0x2c2abd1e00000000000000000000000000000000000000000000000000000000000000200000000000000000000000000000000000000000000000000000000000000001000000000000000000000000000000000000000000000000000000000000002000000000000000000000000000000000000000000000000000000000000000240f0f3f240000000000000000000000000397b15451ad09c5e7fd851bcc1315462ac72c2f00000000000000000000000000000000000000000000000000000000, 10000000, 10000000, 10000000, 10000000, 10000000, 0x576f2803354d05c67425610f4d9b1068ce723c7600000000000000000000000000000000000000000000000000000000000000200000000000000000000000000000000000000000000000000000000000000000, 0x0000000000000000000000000000000000000000000000000000000000000020000000000000000000000000000000000000000000000000000000000000000000000000000000000000000000000000000000000000000000000000000000400000000000000000000000000000000000000000000000000000000000000041a802971fba69aa06eabfb9454c08fbb533980fd64f5599e2f76708bcb06a55443a8337281c58b6f86fe19a3dfc3ec4cbcf22f64353b668d8b2329c3c0d27f0201b00000000000000000000000000000000000000000000000000000000000000)]",
        "0x2cdECc2C3FEA2B68949169d0eFA84D9517d05326"
      ],
      "transaction": {
        "from": "0xc1200b5147ba1a0348b8462d00d237016945dfff",
        "to": "0x5ff137d4b0fdcd49dca30c7cf57e578a026d2789",
        "value": "0x0",
        "input": "0x1fad948c00000000000000000000000000000000000000000000000000000000000000400000000000000000000000002cdecc2c3fea2b68949169d0efa84d9517d05326000000000000000000000000000000000000000000000000000000000000000100000000000000000000000000000000000000000000000000000000000000200000000000000000000000002cdecc2c3fea2b68949169d0efa84d9517d053260000000000000000000000000000000000000000000021050000000000000003000000000000000000000000000000000000000000000000000000000000016000000000000000000000000000000000000000000000000000000000000001800000000000000000000000000000000000000000000000000000000000989680000000000000000000000000000000000000000000000000000000000098968000000000000000000000000000000000000000000000000000000000009896800000000000000000000000000000000000000000000000000000000000989680000000000000000000000000000000000000000000000000000000000098968000000000000000000000000000000000000000000000000000000000000002800000000000000000000000000000000000000000000000000000000000000300000000000000000000000000000000000000000000000000000000000000000000000000000000000000000000000000000000000000000000000000000000c42c2abd1e00000000000000000000000000000000000000000000000000000000000000200000000000000000000000000000000000000000000000000000000000000001000000000000000000000000000000000000000000000000000000000000002000000000000000000000000000000000000000000000000000000000000000240f0f3f240000000000000000000000000397b15451ad09c5e7fd851bcc1315462ac72c2f00000000000000000000000000000000000000000000000000000000000000000000000000000000000000000000000000000000000000000000000000000000000000000000000000000000000000000000000000000054576f2803354d05c67425610f4d9b1068ce723c760000000000000000000000000000000000000000000000000000000000000020000000000000000000000000000000000000000000000000000000000000000000000000000000000000000000000000000000000000000000000000000000000000000000000000000000e00000000000000000000000000000000000000000000000000000000000000020000000000000000000000000000000000000000000000000000000000000000000000000000000000000000000000000000000000000000000000000000000400000000000000000000000000000000000000000000000000000000000000041a802971fba69aa06eabfb9454c08fbb533980fd64f5599e2f76708bcb06a55443a8337281c58b6f86fe19a3dfc3ec4cbcf22f64353b668d8b2329c3c0d27f0201b00000000000000000000000000000000000000000000000000000000000000",
        "nonce": "0x35",
        "chainId": "0xaa37dc"
      },
      "additionalContracts": [],
      "isFixedGasLimit": false
    }
  ],
  "receipts": [
    {
      "status": "0x1",
      "cumulativeGasUsed": "0x16f140",
      "logs": [
        {
          "address": "0x4de3fbb6df50a7e6dbeef948dffc1e38beceb72c",
          "topics": [
            "0x58d54a183ecca20b3ab42203e6af3cd7b55bf2e7e93cbfa16ca7aff9fbb7228c",
            "0x0000000000000000000000002cdecc2c3fea2b68949169d0efa84d9517d05326"
          ],
          "data": "0x00000000000000000000000000000000000000000000000000000000000000200000000000000000000000002cdecc2c3fea2b68949169d0efa84d9517d053260000000000000000000000000000000000000000000021050000000000000003000000000000000000000000000000000000000000000000000000000000016000000000000000000000000000000000000000000000000000000000000001800000000000000000000000000000000000000000000000000000000000989680000000000000000000000000000000000000000000000000000000000098968000000000000000000000000000000000000000000000000000000000009896800000000000000000000000000000000000000000000000000000000000989680000000000000000000000000000000000000000000000000000000000098968000000000000000000000000000000000000000000000000000000000000002800000000000000000000000000000000000000000000000000000000000000300000000000000000000000000000000000000000000000000000000000000000000000000000000000000000000000000000000000000000000000000000000c42c2abd1e00000000000000000000000000000000000000000000000000000000000000200000000000000000000000000000000000000000000000000000000000000001000000000000000000000000000000000000000000000000000000000000002000000000000000000000000000000000000000000000000000000000000000240f0f3f240000000000000000000000000397b15451ad09c5e7fd851bcc1315462ac72c2f00000000000000000000000000000000000000000000000000000000000000000000000000000000000000000000000000000000000000000000000000000000000000000000000000000000000000000000000000000054576f2803354d05c67425610f4d9b1068ce723c760000000000000000000000000000000000000000000000000000000000000020000000000000000000000000000000000000000000000000000000000000000000000000000000000000000000000000000000000000000000000000000000000000000000000000000000e00000000000000000000000000000000000000000000000000000000000000020000000000000000000000000000000000000000000000000000000000000000000000000000000000000000000000000000000000000000000000000000000400000000000000000000000000000000000000000000000000000000000000041a802971fba69aa06eabfb9454c08fbb533980fd64f5599e2f76708bcb06a55443a8337281c58b6f86fe19a3dfc3ec4cbcf22f64353b668d8b2329c3c0d27f0201b00000000000000000000000000000000000000000000000000000000000000",
          "blockHash": "0x9838803869795fd7a8f62147cbd2f4d3e6da2b6d1ac426b800b8f68377f173cc",
          "blockNumber": "0x1248549",
          "transactionHash": "0xb6f5875177dd6556fac0258dc28a7fe7d962dfc3a97c62594cb3c131f20ecd03",
          "transactionIndex": "0x3",
          "logIndex": "0x7",
          "removed": false
        },
        {
          "address": "0x5ff137d4b0fdcd49dca30c7cf57e578a026d2789",
          "topics": [
            "0xbb47ee3e183a558b1a2ff0874b079f3fc5478b7454eacf2bfc5af2ff5878f972"
          ],
          "data": "0x",
          "blockHash": "0x9838803869795fd7a8f62147cbd2f4d3e6da2b6d1ac426b800b8f68377f173cc",
          "blockNumber": "0x1248549",
          "transactionHash": "0xb6f5875177dd6556fac0258dc28a7fe7d962dfc3a97c62594cb3c131f20ecd03",
          "transactionIndex": "0x3",
          "logIndex": "0x8",
          "removed": false
        },
        {
          "address": "0x2cdecc2c3fea2b68949169d0efa84d9517d05326",
          "topics": [
            "0x38109edc26e166b5579352ce56a50813177eb25208fd90d61f2f378386220220",
            "0x0000000000000000000000000000000000000000000000000000000000000003"
          ],
          "data": "0x000000000000000000000000000000000000000000000000000000000000002000000000000000000000000000000000000000000000000000000000000000200000000000000000000000000397b15451ad09c5e7fd851bcc1315462ac72c2f",
          "blockHash": "0x9838803869795fd7a8f62147cbd2f4d3e6da2b6d1ac426b800b8f68377f173cc",
          "blockNumber": "0x1248549",
          "transactionHash": "0xb6f5875177dd6556fac0258dc28a7fe7d962dfc3a97c62594cb3c131f20ecd03",
          "transactionIndex": "0x3",
          "logIndex": "0x9",
          "removed": false
        },
        {
          "address": "0x5ff137d4b0fdcd49dca30c7cf57e578a026d2789",
          "topics": [
            "0x49628fd1471006c1482da88028e9ce4dbb080b815c9b0344d39e5a8e6ec1419f",
            "0xacc114b883299ff8c06e314d9f33c753b65b398d542e52a6594e2655b5b74bda",
            "0x0000000000000000000000002cdecc2c3fea2b68949169d0efa84d9517d05326",
            "0x000000000000000000000000576f2803354d05c67425610f4d9b1068ce723c76"
          ],
          "data": "0x0000000000000000000000000000000000000000000021050000000000000003000000000000000000000000000000000000000000000000000000000000000100000000000000000000000000000000000000000000000000005c772c0e538000000000000000000000000000000000000000000000000000000000009b21a3",
          "blockHash": "0x9838803869795fd7a8f62147cbd2f4d3e6da2b6d1ac426b800b8f68377f173cc",
          "blockNumber": "0x1248549",
          "transactionHash": "0xb6f5875177dd6556fac0258dc28a7fe7d962dfc3a97c62594cb3c131f20ecd03",
          "transactionIndex": "0x3",
          "logIndex": "0xa",
          "removed": false
        }
      ],
      "logsBloom": "0x000000000000000000000004000000000000000000000800000000000000000000080000000000002002000100000001001000000200000000000200000000000000000000000000000000000000000000000000000000000000000000000000000000000c0004000000000000000010000000000000000000000000000000008000100000000010000000000000000000000000000000004000000000000000000000000000000000400000000000000000000020800000000002000000400000002000000000800001420000000000000000000000000000000100000000000000800000000000000000480000000000000100000000000000000000000000",
      "type": "0x2",
      "transactionHash": "0xb6f5875177dd6556fac0258dc28a7fe7d962dfc3a97c62594cb3c131f20ecd03",
      "transactionIndex": "0x3",
      "blockHash": "0x9838803869795fd7a8f62147cbd2f4d3e6da2b6d1ac426b800b8f68377f173cc",
      "blockNumber": "0x1248549",
      "gasUsed": "0x34479",
      "effectiveGasPrice": "0x2f1",
      "from": "0xc1200b5147ba1a0348b8462d00d237016945dfff",
      "to": "0x5ff137d4b0fdcd49dca30c7cf57e578a026d2789",
      "contractAddress": null,
      "l1BaseFeeScalar": "0x1db0",
      "l1BlobBaseFee": "0x1",
      "l1BlobBaseFeeScalar": "0xd2730",
      "l1Fee": "0x66cdc510e",
      "l1GasPrice": "0x2eb95529",
      "l1GasUsed": "0x1218"
    }
  ],
  "libraries": [],
  "pending": [],
  "returns": {},
  "timestamp": 1730143812,
  "chain": 11155420,
  "commit": "47864ce"
}