{
  "transactions": [
    {
      "hash": "0x1c3612b7b2504d7ada42cb44d6e04f1cdf90fa8bb198cd6363b7fb45e53eb930",
      "transactionType": "CALL",
      "contractName": null,
      "contractAddress": "0xce1520e676e5f126f024e0fcd342b66fa9f97593",
      "function": "createAccount(bytes[],uint256)",
      "arguments": [
        "[0x0000000000000000000000005b73c5498c1e3b4dba84de0f1833c4a029d90519, 0x000000000000000000000000c1200b5147ba1a0348b8462d00d237016945dfff]",
        "1"
      ],
      "transaction": {
        "from": "0xc1200b5147ba1a0348b8462d00d237016945dfff",
        "to": "0xce1520e676e5f126f024e0fcd342b66fa9f97593",
        "gas": "0x9cc5",
        "value": "0x0",
        "input": "0x3ffba36f0000000000000000000000000000000000000000000000000000000000000040000000000000000000000000000000000000000000000000000000000000000100000000000000000000000000000000000000000000000000000000000000020000000000000000000000000000000000000000000000000000000000000040000000000000000000000000000000000000000000000000000000000000008000000000000000000000000000000000000000000000000000000000000000200000000000000000000000005b73c5498c1e3b4dba84de0f1833c4a029d905190000000000000000000000000000000000000000000000000000000000000020000000000000000000000000c1200b5147ba1a0348b8462d00d237016945dfff",
        "nonce": "0xb",
        "chainId": "0xaa37dc"
      },
      "additionalContracts": [],
      "isFixedGasLimit": false
    }
  ],
  "receipts": [
    {
      "status": "0x1",
      "cumulativeGasUsed": "0x6b90e",
      "logs": [],
      "logsBloom": "0x00000000000000000000000000000000000000000000000000000000000000000000000000000000000000000000000000000000000000000000000000000000000000000000000000000000000000000000000000000000000000000000000000000000000000000000000000000000000000000000000000000000000000000000000000000000000000000000000000000000000000000000000000000000000000000000000000000000000000000000000000000000000000000000000000000000000000000000000000000000000000000000000000000000000000000000000000000000000000000000000000000000000000000000000000000000",
      "type": "0x2",
      "transactionHash": "0x1c3612b7b2504d7ada42cb44d6e04f1cdf90fa8bb198cd6363b7fb45e53eb930",
      "transactionIndex": "0x3",
      "blockHash": "0x847bba68e533b96198225542f482d7c908cdd0cec1bcf6f324d5066b53ccf697",
      "blockNumber": "0x10044b4",
      "gasUsed": "0x6b32",
      "effectiveGasPrice": "0xf6a5d",
      "from": "0xc1200b5147ba1a0348b8462d00d237016945dfff",
      "to": "0xce1520e676e5f126f024e0fcd342b66fa9f97593",
      "contractAddress": null,
      "l1BaseFeeScalar": "0x1db0",
      "l1BlobBaseFee": "0x39afbecf",
      "l1BlobBaseFeeScalar": "0xd2730",
      "l1Fee": "0x2d3420020b",
      "l1GasPrice": "0x12db51216",
      "l1GasUsed": "0x85e"
    }
  ],
  "libraries": [],
  "pending": [],
  "returns": {},
  "timestamp": 1725392153,
  "chain": 11155420,
  "commit": "962060b"
}