{
  "transactions": [
    {
      "hash": "0xbb15c8ce18501af43ae1908b403527733fc1d6cd021cf95c1a4a345827de2b1b",
      "transactionType": "CALL",
      "contractName": null,
      "contractAddress": "0xce1520e676e5f126f024e0fcd342b66fa9f97593",
      "function": "createAccount(bytes[],uint256)",
      "arguments": [
        "[0x0000000000000000000000005b73c5498c1e3b4dba84de0f1833c4a029d90519, 0x000000000000000000000000c1200b5147ba1a0348b8462d00d237016945dfff]",
        "1"
      ],
      "transaction": {
        "from": "0xc1200b5147ba1a0348b8462d00d237016945dfff",
        "to": "0xce1520e676e5f126f024e0fcd342b66fa9f97593",
        "gas": "0x58cda",
        "value": "0x0",
        "input": "0x3ffba36f0000000000000000000000000000000000000000000000000000000000000040000000000000000000000000000000000000000000000000000000000000000100000000000000000000000000000000000000000000000000000000000000020000000000000000000000000000000000000000000000000000000000000040000000000000000000000000000000000000000000000000000000000000008000000000000000000000000000000000000000000000000000000000000000200000000000000000000000005b73c5498c1e3b4dba84de0f1833c4a029d905190000000000000000000000000000000000000000000000000000000000000020000000000000000000000000c1200b5147ba1a0348b8462d00d237016945dfff",
        "nonce": "0x8",
        "chainId": "0xaa37dc"
      },
      "additionalContracts": [
        {
          "transactionType": "CREATE2",
          "address": "0x8636d078efa37b7a8003b5ec3e38c4e2a8d18d6b",
          "initCode": "0x603d3d8160223d39733c588d5141ffc6358eeef4a4bef3ba55eaaada8d60095155f3363d3d373d3d363d7f360894a13ba1a3210667c828492db98dca3e2076cc3735a920a3ca505d382bbc545af43d6000803e6038573d6000fd5b3d6000f3"
        }
      ],
      "isFixedGasLimit": false
    }
  ],
  "receipts": [
    {
      "status": "0x1",
      "cumulativeGasUsed": "0x203c89",
      "logs": [
        {
          "address": "0x8636d078efa37b7a8003b5ec3e38c4e2a8d18d6b",
          "topics": [
            "0x38109edc26e166b5579352ce56a50813177eb25208fd90d61f2f378386220220",
            "0x0000000000000000000000000000000000000000000000000000000000000000"
          ],
          "data": "0x000000000000000000000000000000000000000000000000000000000000002000000000000000000000000000000000000000000000000000000000000000200000000000000000000000005b73c5498c1e3b4dba84de0f1833c4a029d90519",
          "blockHash": "0x190dfa97c401671a885ed2dd1a6dba50b7b3ebd755caed5c1dafb133dc623a7e",
          "blockNumber": "0xfdac8d",
          "transactionHash": "0xbb15c8ce18501af43ae1908b403527733fc1d6cd021cf95c1a4a345827de2b1b",
          "transactionIndex": "0x4",
          "logIndex": "0x20",
          "removed": false
        },
        {
          "address": "0x8636d078efa37b7a8003b5ec3e38c4e2a8d18d6b",
          "topics": [
            "0x38109edc26e166b5579352ce56a50813177eb25208fd90d61f2f378386220220",
            "0x0000000000000000000000000000000000000000000000000000000000000001"
          ],
          "data": "0x00000000000000000000000000000000000000000000000000000000000000200000000000000000000000000000000000000000000000000000000000000020000000000000000000000000c1200b5147ba1a0348b8462d00d237016945dfff",
          "blockHash": "0x190dfa97c401671a885ed2dd1a6dba50b7b3ebd755caed5c1dafb133dc623a7e",
          "blockNumber": "0xfdac8d",
          "transactionHash": "0xbb15c8ce18501af43ae1908b403527733fc1d6cd021cf95c1a4a345827de2b1b",
          "transactionIndex": "0x4",
          "logIndex": "0x21",
          "removed": false
        }
      ],
      "logsBloom": "0x00000000000000000000000000000000000000000000000000000000000000000000000000000000000000000000000000000000000000000000000000040000000000000000000000000000000000000000000000040000000000000000000000000000020200000000000000000800000000000000000000000000000000008000000000000000000000000000000000000000000002000000000000000000000000000000000000000000000000000000000000000000000000000000000000000000000000800000000000000000000000000000000000000000000060000000800000000000000000400000000000000000000000000000000000000000",
      "type": "0x2",
      "transactionHash": "0xbb15c8ce18501af43ae1908b403527733fc1d6cd021cf95c1a4a345827de2b1b",
      "transactionIndex": "0x4",
      "blockHash": "0x190dfa97c401671a885ed2dd1a6dba50b7b3ebd755caed5c1dafb133dc623a7e",
      "blockNumber": "0xfdac8d",
      "gasUsed": "0x404b3",
      "effectiveGasPrice": "0xf6a59",
      "from": "0xc1200b5147ba1a0348b8462d00d237016945dfff",
      "to": "0xce1520e676e5f126f024e0fcd342b66fa9f97593",
      "contractAddress": null,
      "l1BaseFeeScalar": "0x1db0",
      "l1BlobBaseFee": "0x1",
      "l1BlobBaseFeeScalar": "0xd2730",
      "l1Fee": "0x93a1252b",
      "l1GasPrice": "0x90271b0",
      "l1GasUsed": "0x86c"
    }
  ],
  "libraries": [],
  "pending": [],
  "returns": {},
  "timestamp": 1725052108,
  "chain": 11155420,
  "commit": "8b4171a"
}