{
  "transactions": [
    {
      "hash": "0x27bbf5d216b001cda0547ad9d9be8f0d42facf32d90e84e710409cb903887b17",
      "transactionType": "CALL",
      "contractName": null,
      "contractAddress": "0x055c6b31791236338dced5c295127dd01d55ea04",
      "function": "createAccount(bytes[],uint256)",
      "arguments": [
        "[0x000000000000000000000000c1200b5147ba1a0348b8462d00d237016945dfff]",
        "0"
      ],
      "transaction": {
        "from": "0xc1200b5147ba1a0348b8462d00d237016945dfff",
        "to": "0x055c6b31791236338dced5c295127dd01d55ea04",
        "gas": "0x40569",
        "value": "0x0",
        "input": "0x3ffba36f00000000000000000000000000000000000000000000000000000000000000400000000000000000000000000000000000000000000000000000000000000000000000000000000000000000000000000000000000000000000000000000000100000000000000000000000000000000000000000000000000000000000000200000000000000000000000000000000000000000000000000000000000000020000000000000000000000000c1200b5147ba1a0348b8462d00d237016945dfff",
        "nonce": "0x18",
        "chainId": "0xaa37dc"
      },
      "additionalContracts": [
        {
          "transactionType": "CREATE2",
          "address": "0x8aeaea2b55b0bb1d5a5e8e6898a175f79723922d",
          "initCode": "0x603d3d8160223d3973355cb1524266daa444453a69611768aa3472b78f60095155f3363d3d373d3d363d7f360894a13ba1a3210667c828492db98dca3e2076cc3735a920a3ca505d382bbc545af43d6000803e6038573d6000fd5b3d6000f3"
        }
      ],
      "isFixedGasLimit": false
    }
  ],
  "receipts": [
    {
      "status": "0x1",
      "cumulativeGasUsed": "0x1278dd",
      "logs": [
        {
          "address": "0x8aeaea2b55b0bb1d5a5e8e6898a175f79723922d",
          "topics": [
            "0x38109edc26e166b5579352ce56a50813177eb25208fd90d61f2f378386220220",
            "0x0000000000000000000000000000000000000000000000000000000000000000"
          ],
          "data": "0x00000000000000000000000000000000000000000000000000000000000000200000000000000000000000000000000000000000000000000000000000000020000000000000000000000000c1200b5147ba1a0348b8462d00d237016945dfff",
          "blockHash": "0x7003ee903da621dbc87347487fdd620ba269e112ebcc036926864ce0c6c87285",
          "blockNumber": "0x10057c3",
          "transactionHash": "0x27bbf5d216b001cda0547ad9d9be8f0d42facf32d90e84e710409cb903887b17",
          "transactionIndex": "0x3",
          "logIndex": "0x16",
          "removed": false
        }
      ],
      "logsBloom": "0x00000000000000000000000000008000000000000000000000000000000000000000000000000000000000000000000000000000000000000000000000000000000000000000000000000000000000000000000002000000000000000000000000000000020000000000000000000800000000000000000000000000000000008000000000000000000000000000000000000000000000100000000000000000000000000000000000000000000000000000000000000000000000000000000000000000000000800000000000000000000000000000000000000000000020000000800000000000000000000000000000000000000000000000000000000000",
      "type": "0x2",
      "transactionHash": "0x27bbf5d216b001cda0547ad9d9be8f0d42facf32d90e84e710409cb903887b17",
      "transactionIndex": "0x3",
      "blockHash": "0x7003ee903da621dbc87347487fdd620ba269e112ebcc036926864ce0c6c87285",
      "blockNumber": "0x10057c3",
      "gasUsed": "0x2e94d",
      "effectiveGasPrice": "0xf6a56",
      "from": "0xc1200b5147ba1a0348b8462d00d237016945dfff",
      "to": "0x055c6b31791236338dced5c295127dd01d55ea04",
      "contractAddress": null,
      "l1BaseFeeScalar": "0x1db0",
      "l1BlobBaseFee": "0xb",
      "l1BlobBaseFeeScalar": "0xd2730",
      "l1Fee": "0xed9116e6b",
      "l1GasPrice": "0x138967c25",
      "l1GasUsed": "0x640"
    }
  ],
  "libraries": [],
  "pending": [],
  "returns": {},
  "timestamp": 1725401911,
  "chain": 11155420,
  "commit": "c592d3d"
}