{
  "transactions": [
    {
      "hash": "0xa5f5bbe0d9af02e9173007ea952d178a764f1390405d5cbc6a6ed5759f624761",
      "transactionType": "CALL",
      "contractName": null,
      "contractAddress": "0xdd21f566b37c6aaf1abf024b815d802931d6d3f9",
      "function": "createAccount(bytes[],uint256)",
      "arguments": [
        "[0x000000000000000000000000c1200b5147ba1a0348b8462d00d237016945dfff]",
        "0"
      ],
      "transaction": {
        "from": "0xc1200b5147ba1a0348b8462d00d237016945dfff",
        "to": "0xdd21f566b37c6aaf1abf024b815d802931d6d3f9",
        "gas": "0x5f644",
        "value": "0x0",
        "input": "0x3ffba36f00000000000000000000000000000000000000000000000000000000000000400000000000000000000000000000000000000000000000000000000000000000000000000000000000000000000000000000000000000000000000000000000100000000000000000000000000000000000000000000000000000000000000200000000000000000000000000000000000000000000000000000000000000020000000000000000000000000c1200b5147ba1a0348b8462d00d237016945dfff",
        "nonce": "0x2d",
        "chainId": "0xaa37dc"
      },
      "additionalContracts": [],
      "isFixedGasLimit": false
    }
  ],
  "receipts": [
    {
      "status": "0x1",
      "cumulativeGasUsed": "0x154573",
      "logs": [
        {
          "address": "0x2cdecc2c3fea2b68949169d0efa84d9517d05326",
          "topics": [
            "0x38109edc26e166b5579352ce56a50813177eb25208fd90d61f2f378386220220",
            "0x0000000000000000000000000000000000000000000000000000000000000000"
          ],
          "data": "0x00000000000000000000000000000000000000000000000000000000000000200000000000000000000000000000000000000000000000000000000000000020000000000000000000000000c1200b5147ba1a0348b8462d00d237016945dfff",
          "blockHash": "0xeb3442bcd7ea6a9d39276101d0b50f9143bfc4abc632aefd2f12de35a0678665",
          "blockNumber": "0x121dec2",
          "transactionHash": "0xa5f5bbe0d9af02e9173007ea952d178a764f1390405d5cbc6a6ed5759f624761",
          "transactionIndex": "0x2",
          "logIndex": "0x10",
          "removed": false
        }
      ],
      "logsBloom": "0x00000000000000000000000000000000000000000000000000000000000000000000000000000000000000000000000100000000000000000000000000000000000000000000000000000000000000000000000000000000000000000000000000000000020000000000000000000800000000000000000000000000000000008000000000000000000000000000000000000000000000004000000000000000000000000000000000000000000000000000000000000000000000000000000000000000000000800000400000000000000000000000000000000000000020000000800000000000000000000000000000000000000000000000000000000000",
      "type": "0x2",
      "transactionHash": "0xa5f5bbe0d9af02e9173007ea952d178a764f1390405d5cbc6a6ed5759f624761",
      "transactionIndex": "0x2",
      "blockHash": "0xeb3442bcd7ea6a9d39276101d0b50f9143bfc4abc632aefd2f12de35a0678665",
      "blockNumber": "0x121dec2",
      "gasUsed": "0x45104",
      "effectiveGasPrice": "0xf6a4d",
      "from": "0xc1200b5147ba1a0348b8462d00d237016945dfff",
      "to": "0xdd21f566b37c6aaf1abf024b815d802931d6d3f9",
      "contractAddress": null,
      "l1BaseFeeScalar": "0x1db0",
      "l1BlobBaseFee": "0x36220ebf0",
      "l1BlobBaseFeeScalar": "0xd2730",
      "l1Fee": "0x1252452f0ea",
      "l1GasPrice": "0x1f95063e",
      "l1GasUsed": "0x640"
    }
  ],
  "libraries": [],
  "pending": [],
  "returns": {},
  "timestamp": 1729796407,
  "chain": 11155420,
  "commit": "47864ce"
}