{
  "transactions": [
    {
      "hash": "0xb1a2f2a11bbf9250b26ea1d35ee4cd25e91fdbb1e1ac7d6e97c2056445a74712",
      "transactionType": "CALL",
      "contractName": null,
      "contractAddress": "0xce1520e676e5f126f024e0fcd342b66fa9f97593",
      "function": "createAccount(bytes[],uint256)",
      "arguments": [
        "[0x0000000000000000000000005b73c5498c1e3b4dba84de0f1833c4a029d90519, 0x000000000000000000000000c1200b5147ba1a0348b8462d00d237016945dfff]",
        "0"
      ],
      "transaction": {
        "from": "0xc1200b5147ba1a0348b8462d00d237016945dfff",
        "to": "0xce1520e676e5f126f024e0fcd342b66fa9f97593",
        "gas": "0x93ff",
        "value": "0x0",
        "input": "0x3ffba36f0000000000000000000000000000000000000000000000000000000000000040000000000000000000000000000000000000000000000000000000000000000000000000000000000000000000000000000000000000000000000000000000020000000000000000000000000000000000000000000000000000000000000040000000000000000000000000000000000000000000000000000000000000008000000000000000000000000000000000000000000000000000000000000000200000000000000000000000005b73c5498c1e3b4dba84de0f1833c4a029d905190000000000000000000000000000000000000000000000000000000000000020000000000000000000000000c1200b5147ba1a0348b8462d00d237016945dfff",
        "nonce": "0x7",
        "chainId": "0xaa37dc"
      },
      "additionalContracts": [],
      "isFixedGasLimit": false
    }
  ],
  "receipts": [
    {
      "status": "0x1",
      "cumulativeGasUsed": "0xfb4e5",
      "logs": [],
      "logsBloom": "0x00000000000000000000000000000000000000000000000000000000000000000000000000000000000000000000000000000000000000000000000000000000000000000000000000000000000000000000000000000000000000000000000000000000000000000000000000000000000000000000000000000000000000000000000000000000000000000000000000000000000000000000000000000000000000000000000000000000000000000000000000000000000000000000000000000000000000000000000000000000000000000000000000000000000000000000000000000000000000000000000000000000000000000000000000000000",
      "type": "0x2",
      "transactionHash": "0xb1a2f2a11bbf9250b26ea1d35ee4cd25e91fdbb1e1ac7d6e97c2056445a74712",
      "transactionIndex": "0x5",
      "blockHash": "0x9be4c6e91ea876283fc788ccd55a155cfb3d14e27823c785142f5c9af75aca0a",
      "blockNumber": "0xfdac57",
      "gasUsed": "0x6b26",
      "effectiveGasPrice": "0xf6a59",
      "from": "0xc1200b5147ba1a0348b8462d00d237016945dfff",
      "to": "0xce1520e676e5f126f024e0fcd342b66fa9f97593",
      "contractAddress": null,
      "l1BaseFeeScalar": "0x1db0",
      "l1BlobBaseFee": "0x1",
      "l1BlobBaseFeeScalar": "0xd2730",
      "l1Fee": "0x842d4621",
      "l1GasPrice": "0x899b301",
      "l1GasUsed": "0x7e6"
    }
  ],
  "libraries": [],
  "pending": [],
  "returns": {},
  "timestamp": 1725051999,
  "chain": 11155420,
  "commit": "8b4171a"
}