{
  "transactions": [
    {
      "hash": "0x5d6597b24bd03c141f2b378b2a391d2febc7fcc04bb303006cbb3251ca5e66cc",
      "transactionType": "CALL",
      "contractName": null,
      "contractAddress": "0xd3678648be12cef1721dbb5351c25b59852847c8",
      "function": "createAccount(bytes[],uint256)",
      "arguments": [
        "[0x0000000000000000000000005b73c5498c1e3b4dba84de0f1833c4a029d90519, 0x000000000000000000000000c1200b5147ba1a0348b8462d00d237016945dfff]",
        "1"
      ],
      "transaction": {
        "from": "0xc1200b5147ba1a0348b8462d00d237016945dfff",
        "to": "0xd3678648be12cef1721dbb5351c25b59852847c8",
        "gas": "0x58cda",
        "value": "0x0",
        "input": "0x3ffba36f0000000000000000000000000000000000000000000000000000000000000040000000000000000000000000000000000000000000000000000000000000000100000000000000000000000000000000000000000000000000000000000000020000000000000000000000000000000000000000000000000000000000000040000000000000000000000000000000000000000000000000000000000000008000000000000000000000000000000000000000000000000000000000000000200000000000000000000000005b73c5498c1e3b4dba84de0f1833c4a029d905190000000000000000000000000000000000000000000000000000000000000020000000000000000000000000c1200b5147ba1a0348b8462d00d237016945dfff",
        "nonce": "0xc",
        "chainId": "0xaa37dc"
      },
      "additionalContracts": [
        {
          "transactionType": "CREATE2",
          "address": "0xa81dbbca92fcf01ba4485c225bb6555f6abc2ef8",
          "initCode": "0x603d3d8160223d3973e71b9a4ae0d2d191dfa2124f976708ed2bc3a61e60095155f3363d3d373d3d363d7f360894a13ba1a3210667c828492db98dca3e2076cc3735a920a3ca505d382bbc545af43d6000803e6038573d6000fd5b3d6000f3"
        }
      ],
      "isFixedGasLimit": false
    }
  ],
  "receipts": [
    {
      "status": "0x1",
      "cumulativeGasUsed": "0x123a40",
      "logs": [
        {
          "address": "0xa81dbbca92fcf01ba4485c225bb6555f6abc2ef8",
          "topics": [
            "0x38109edc26e166b5579352ce56a50813177eb25208fd90d61f2f378386220220",
            "0x0000000000000000000000000000000000000000000000000000000000000000"
          ],
          "data": "0x000000000000000000000000000000000000000000000000000000000000002000000000000000000000000000000000000000000000000000000000000000200000000000000000000000005b73c5498c1e3b4dba84de0f1833c4a029d90519",
          "blockHash": "0xcef7b1b71fd48e42406c14ba171c6708fe431062bc9b9847e446fb66c1e82a19",
          "blockNumber": "0x100454b",
          "transactionHash": "0x5d6597b24bd03c141f2b378b2a391d2febc7fcc04bb303006cbb3251ca5e66cc",
          "transactionIndex": "0x4",
          "logIndex": "0x14",
          "removed": false
        },
        {
          "address": "0xa81dbbca92fcf01ba4485c225bb6555f6abc2ef8",
          "topics": [
            "0x38109edc26e166b5579352ce56a50813177eb25208fd90d61f2f378386220220",
            "0x0000000000000000000000000000000000000000000000000000000000000001"
          ],
          "data": "0x00000000000000000000000000000000000000000000000000000000000000200000000000000000000000000000000000000000000000000000000000000020000000000000000000000000c1200b5147ba1a0348b8462d00d237016945dfff",
          "blockHash": "0xcef7b1b71fd48e42406c14ba171c6708fe431062bc9b9847e446fb66c1e82a19",
          "blockNumber": "0x100454b",
          "transactionHash": "0x5d6597b24bd03c141f2b378b2a391d2febc7fcc04bb303006cbb3251ca5e66cc",
          "transactionIndex": "0x4",
          "logIndex": "0x15",
          "removed": false
        }
      ],
      "logsBloom": "0x00000000000000000000000000000000000000000000000000000000000000000000000000000000000000000000000000000000000000000000000000040000000000000000000000000000000000000000000000040000000000000000000000000000020000000000020000000800000000000000040000000000000000008000000000000000000000000000000000000000000000000000000000000000000000000000000000000000000000000000000000000000000000000000000000000000000000800000000000000000004000000000000000000000000060000000800000000000000000000000000000000000000000000000000000000000",
      "type": "0x2",
      "transactionHash": "0x5d6597b24bd03c141f2b378b2a391d2febc7fcc04bb303006cbb3251ca5e66cc",
      "transactionIndex": "0x4",
      "blockHash": "0xcef7b1b71fd48e42406c14ba171c6708fe431062bc9b9847e446fb66c1e82a19",
      "blockNumber": "0x100454b",
      "gasUsed": "0x404b3",
      "effectiveGasPrice": "0xf6a66",
      "from": "0xc1200b5147ba1a0348b8462d00d237016945dfff",
      "to": "0xd3678648be12cef1721dbb5351c25b59852847c8",
      "contractAddress": null,
      "l1BaseFeeScalar": "0x1db0",
      "l1BlobBaseFee": "0x3346e274",
      "l1BlobBaseFeeScalar": "0xd2730",
      "l1Fee": "0x2a8e254da1",
      "l1GasPrice": "0x12d5b4ea3",
      "l1GasUsed": "0x86c"
    }
  ],
  "libraries": [],
  "pending": [],
  "returns": {},
  "timestamp": 1725392455,
  "chain": 11155420,
  "commit": "962060b"
}