{
  "transactions": [
    {
      "hash": "0xec87f169813bfe928202ffc19e35a52d1e63189596f9d6e95fb887eb2fcfef75",
      "transactionType": "CALL",
      "contractName": null,
      "contractAddress": "0x5a685c883e4388c17747170de6228a0da1840cbe",
      "function": "createAccount(bytes[],uint256)",
      "arguments": [
        "[0x000000000000000000000000c1200b5147ba1a0348b8462d00d237016945dfff, 0x0000000000000000000000005b73c5498c1e3b4dba84de0f1833c4a029d90519]",
        "0"
      ],
      "transaction": {
        "from": "0xc1200b5147ba1a0348b8462d00d237016945dfff",
        "to": "0x5a685c883e4388c17747170de6228a0da1840cbe",
        "gas": "0x5e05e",
        "value": "0x0",
        "input": "0x3ffba36f000000000000000000000000000000000000000000000000000000000000004000000000000000000000000000000000000000000000000000000000000000000000000000000000000000000000000000000000000000000000000000000002000000000000000000000000000000000000000000000000000000000000004000000000000000000000000000000000000000000000000000000000000000800000000000000000000000000000000000000000000000000000000000000020000000000000000000000000c1200b5147ba1a0348b8462d00d237016945dfff00000000000000000000000000000000000000000000000000000000000000200000000000000000000000005b73c5498c1e3b4dba84de0f1833c4a029d90519",
        "nonce": "0x14",
        "chainId": "0xaa37dc"
      },
      "additionalContracts": [
        {
          "transactionType": "CREATE2",
          "address": "0xee3dc6828ed65da69712143cee7b00797f246889",
          "initCode": "0x603d3d8160223d3973c88e6e5b01c7619ae5767f67782850d39f75815360095155f3363d3d373d3d363d7f360894a13ba1a3210667c828492db98dca3e2076cc3735a920a3ca505d382bbc545af43d6000803e6038573d6000fd5b3d6000f3"
        }
      ],
      "isFixedGasLimit": false
    }
  ],
  "receipts": [
    {
      "status": "0x1",
      "cumulativeGasUsed": "0x12f391",
      "logs": [
        {
          "address": "0xee3dc6828ed65da69712143cee7b00797f246889",
          "topics": [
            "0x38109edc26e166b5579352ce56a50813177eb25208fd90d61f2f378386220220",
            "0x0000000000000000000000000000000000000000000000000000000000000000"
          ],
          "data": "0x00000000000000000000000000000000000000000000000000000000000000200000000000000000000000000000000000000000000000000000000000000020000000000000000000000000c1200b5147ba1a0348b8462d00d237016945dfff",
          "blockHash": "0x81b8fab46bdc58f35d45ed0420a02b3107f16d35689731593dd2077e9667c964",
          "blockNumber": "0x1004afa",
          "transactionHash": "0xec87f169813bfe928202ffc19e35a52d1e63189596f9d6e95fb887eb2fcfef75",
          "transactionIndex": "0x4",
          "logIndex": "0xa",
          "removed": false
        },
        {
          "address": "0xee3dc6828ed65da69712143cee7b00797f246889",
          "topics": [
            "0x38109edc26e166b5579352ce56a50813177eb25208fd90d61f2f378386220220",
            "0x0000000000000000000000000000000000000000000000000000000000000001"
          ],
          "data": "0x000000000000000000000000000000000000000000000000000000000000002000000000000000000000000000000000000000000000000000000000000000200000000000000000000000005b73c5498c1e3b4dba84de0f1833c4a029d90519",
          "blockHash": "0x81b8fab46bdc58f35d45ed0420a02b3107f16d35689731593dd2077e9667c964",
          "blockNumber": "0x1004afa",
          "transactionHash": "0xec87f169813bfe928202ffc19e35a52d1e63189596f9d6e95fb887eb2fcfef75",
          "transactionIndex": "0x4",
          "logIndex": "0xb",
          "removed": false
        }
      ],
      "logsBloom": "0x00000000000000000000000000000000000000000000000000000000000000000000000000000000000000000000000000000004000000000000000000040000000000000000000000000000000000000000000000040000000000000000000000000000020000000000000000000800000000000000000000000000000000008000000000000000000000000000000000000000000000000000000000000800000000000000000000000000000000000000000000000000000000000000000000000000000000800000000000000000800000000000000000000000000060000000800000000000000000000000000000000000000000000000000000000000",
      "type": "0x2",
      "transactionHash": "0xec87f169813bfe928202ffc19e35a52d1e63189596f9d6e95fb887eb2fcfef75",
      "transactionIndex": "0x4",
      "blockHash": "0x81b8fab46bdc58f35d45ed0420a02b3107f16d35689731593dd2077e9667c964",
      "blockNumber": "0x1004afa",
      "gasUsed": "0x404a7",
      "effectiveGasPrice": "0xf6a55",
      "from": "0xc1200b5147ba1a0348b8462d00d237016945dfff",
      "to": "0x5a685c883e4388c17747170de6228a0da1840cbe",
      "contractAddress": null,
      "l1BaseFeeScalar": "0x1db0",
      "l1BlobBaseFee": "0x1c08712",
      "l1BlobBaseFeeScalar": "0xd2730",
      "l1Fee": "0x14ab1b7d22",
      "l1GasPrice": "0x14998232b",
      "l1GasUsed": "0x7f3"
    }
  ],
  "libraries": [],
  "pending": [],
  "returns": {},
  "timestamp": 1725395365,
  "chain": 11155420,
  "commit": "962060b"
}