{
  "transactions": [
    {
      "hash": "0xcdc70bf5e6cc21765b7d372c745ac5e74d0628020349d8f742f6dc9e80e8f602",
      "transactionType": "CALL",
      "contractName": null,
      "contractAddress": "0x6575634ff0e99057c9753b1b6461793724294396",
      "function": "createAccount(bytes[],uint256)",
      "arguments": [
        "[0x0000000000000000000000005b73c5498c1e3b4dba84de0f1833c4a029d90519, 0x000000000000000000000000c1200b5147ba1a0348b8462d00d237016945dfff]",
        "1"
      ],
      "transaction": {
        "from": "0xc1200b5147ba1a0348b8462d00d237016945dfff",
        "to": "0x6575634ff0e99057c9753b1b6461793724294396",
        "gas": "0x58cda",
        "value": "0x0",
        "input": "0x3ffba36f0000000000000000000000000000000000000000000000000000000000000040000000000000000000000000000000000000000000000000000000000000000100000000000000000000000000000000000000000000000000000000000000020000000000000000000000000000000000000000000000000000000000000040000000000000000000000000000000000000000000000000000000000000008000000000000000000000000000000000000000000000000000000000000000200000000000000000000000005b73c5498c1e3b4dba84de0f1833c4a029d905190000000000000000000000000000000000000000000000000000000000000020000000000000000000000000c1200b5147ba1a0348b8462d00d237016945dfff",
        "nonce": "0x10",
        "chainId": "0xaa37dc"
      },
      "additionalContracts": [
        {
          "transactionType": "CREATE2",
          "address": "0x2310dcab0dd7377facd958c7134044af0bcd0f15",
          "initCode": "0x603d3d8160223d3973c6e16631f46ee213de952bad2c37b17407a1b39760095155f3363d3d373d3d363d7f360894a13ba1a3210667c828492db98dca3e2076cc3735a920a3ca505d382bbc545af43d6000803e6038573d6000fd5b3d6000f3"
        }
      ],
      "isFixedGasLimit": false
    }
  ],
  "receipts": [
    {
      "status": "0x1",
      "cumulativeGasUsed": "0xb7fde",
      "logs": [
        {
          "address": "0x2310dcab0dd7377facd958c7134044af0bcd0f15",
          "topics": [
            "0x38109edc26e166b5579352ce56a50813177eb25208fd90d61f2f378386220220",
            "0x0000000000000000000000000000000000000000000000000000000000000000"
          ],
          "data": "0x000000000000000000000000000000000000000000000000000000000000002000000000000000000000000000000000000000000000000000000000000000200000000000000000000000005b73c5498c1e3b4dba84de0f1833c4a029d90519",
          "blockHash": "0x9dc322e4f087a186460407c099e56aa9f3667c2271dbac0e81851a6b0f4754be",
          "blockNumber": "0x1004775",
          "transactionHash": "0xcdc70bf5e6cc21765b7d372c745ac5e74d0628020349d8f742f6dc9e80e8f602",
          "transactionIndex": "0x4",
          "logIndex": "0xb",
          "removed": false
        },
        {
          "address": "0x2310dcab0dd7377facd958c7134044af0bcd0f15",
          "topics": [
            "0x38109edc26e166b5579352ce56a50813177eb25208fd90d61f2f378386220220",
            "0x0000000000000000000000000000000000000000000000000000000000000001"
          ],
          "data": "0x00000000000000000000000000000000000000000000000000000000000000200000000000000000000000000000000000000000000000000000000000000020000000000000000000000000c1200b5147ba1a0348b8462d00d237016945dfff",
          "blockHash": "0x9dc322e4f087a186460407c099e56aa9f3667c2271dbac0e81851a6b0f4754be",
          "blockNumber": "0x1004775",
          "transactionHash": "0xcdc70bf5e6cc21765b7d372c745ac5e74d0628020349d8f742f6dc9e80e8f602",
          "transactionIndex": "0x4",
          "logIndex": "0xc",
          "removed": false
        }
      ],
      "logsBloom": "0x00000000000000000000000000000000000000000000000000000000000000000000000000000000000000000000000000000000000000000000000000040000000000000000000000000020000000000000000000040000000000000000000000000000020000000000000000000800000000000000000000000000000000008000000000000000000000000000000000000000000000000000000000000000000000000000000000000000000000000000000000000200000000000000000000040000000000800000000000000000000000000000000000000000000060000000800000000000000000000000000000000000000000000000000000000000",
      "type": "0x2",
      "transactionHash": "0xcdc70bf5e6cc21765b7d372c745ac5e74d0628020349d8f742f6dc9e80e8f602",
      "transactionIndex": "0x4",
      "blockHash": "0x9dc322e4f087a186460407c099e56aa9f3667c2271dbac0e81851a6b0f4754be",
      "blockNumber": "0x1004775",
      "gasUsed": "0x404b3",
      "effectiveGasPrice": "0xf56cb",
      "from": "0xc1200b5147ba1a0348b8462d00d237016945dfff",
      "to": "0x6575634ff0e99057c9753b1b6461793724294396",
      "contractAddress": null,
      "l1BaseFeeScalar": "0x1db0",
      "l1BlobBaseFee": "0x1b5c0871",
      "l1BlobBaseFeeScalar": "0xd2730",
      "l1Fee": "0x25fa229062",
      "l1GasPrice": "0x18f60857d",
      "l1GasUsed": "0x86c"
    }
  ],
  "libraries": [],
  "pending": [],
  "returns": {},
  "timestamp": 1725393564,
  "chain": 11155420,
  "commit": "962060b"
}