{
  "transactions": [
    {
      "hash": "0xef0df1095e51f51d979f97a55556938a9b768b9e2b925f26da8b3d64119ab716",
      "transactionType": "CALL",
      "contractName": null,
      "contractAddress": "0xdd21f566b37c6aaf1abf024b815d802931d6d3f9",
      "function": "createAccount(bytes[],uint256)",
      "arguments": [
        "[0x000000000000000000000000c1200b5147ba1a0348b8462d00d237016945dfff]",
        "0"
      ],
      "transaction": {
        "from": "0xc1200b5147ba1a0348b8462d00d237016945dfff",
        "to": "0xdd21f566b37c6aaf1abf024b815d802931d6d3f9",
        "gas": "0x99da",
        "value": "0x0",
        "input": "0x3ffba36f00000000000000000000000000000000000000000000000000000000000000400000000000000000000000000000000000000000000000000000000000000000000000000000000000000000000000000000000000000000000000000000000100000000000000000000000000000000000000000000000000000000000000200000000000000000000000000000000000000000000000000000000000000020000000000000000000000000c1200b5147ba1a0348b8462d00d237016945dfff",
        "nonce": "0x38",
        "chainId": "0xaa37dc"
      },
      "additionalContracts": [],
      "isFixedGasLimit": false
    }
  ],
  "receipts": [
    {
      "status": "0x1",
      "cumulativeGasUsed": "0x194e7a",
      "logs": [],
      "logsBloom": "0x00000000000000000000000000000000000000000000000000000000000000000000000000000000000000000000000000000000000000000000000000000000000000000000000000000000000000000000000000000000000000000000000000000000000000000000000000000000000000000000000000000000000000000000000000000000000000000000000000000000000000000000000000000000000000000000000000000000000000000000000000000000000000000000000000000000000000000000000000000000000000000000000000000000000000000000000000000000000000000000000000000000000000000000000000000000",
      "type": "0x2",
      "transactionHash": "0xef0df1095e51f51d979f97a55556938a9b768b9e2b925f26da8b3d64119ab716",
      "transactionIndex": "0x4",
      "blockHash": "0xedf31c005b0a6cf941fd80962cb0407921a7cc2779b9c1db288b7de43364c5a9",
      "blockNumber": "0x12d4ad3",
      "gasUsed": "0x6933",
      "effectiveGasPrice": "0xf6a4e",
      "from": "0xc1200b5147ba1a0348b8462d00d237016945dfff",
      "to": "0xdd21f566b37c6aaf1abf024b815d802931d6d3f9",
      "contractAddress": null,
      "l1BaseFeeScalar": "0x1db0",
      "l1BlobBaseFee": "0x1",
      "l1BlobBaseFeeScalar": "0xd2730",
      "l1Fee": "0x72d2c0cf5",
      "l1GasPrice": "0x97154e83",
      "l1GasUsed": "0x640"
    }
  ],
  "libraries": [],
  "pending": [],
  "returns": {},
  "timestamp": 1731293529,
  "chain": 11155420,
  "commit": "657968c"
}