{
  "transactions": [
    {
      "hash": "0xaac1824d4c7d5046e78383f9d6ac53b0de9c7fb8493b8c09364c902633d639a5",
      "transactionType": "CALL",
      "contractName": null,
      "contractAddress": "0x5a685c883e4388c17747170de6228a0da1840cbe",
      "function": "createAccount(bytes[],uint256)",
      "arguments": [
        "[0x0000000000000000000000005b73c5498c1e3b4dba84de0f1833c4a029d90519, 0x000000000000000000000000c1200b5147ba1a0348b8462d00d237016945dfff]",
        "1"
      ],
      "transaction": {
        "from": "0xc1200b5147ba1a0348b8462d00d237016945dfff",
        "to": "0x5a685c883e4388c17747170de6228a0da1840cbe",
        "gas": "0x58cda",
        "value": "0x0",
        "input": "0x3ffba36f0000000000000000000000000000000000000000000000000000000000000040000000000000000000000000000000000000000000000000000000000000000100000000000000000000000000000000000000000000000000000000000000020000000000000000000000000000000000000000000000000000000000000040000000000000000000000000000000000000000000000000000000000000008000000000000000000000000000000000000000000000000000000000000000200000000000000000000000005b73c5498c1e3b4dba84de0f1833c4a029d905190000000000000000000000000000000000000000000000000000000000000020000000000000000000000000c1200b5147ba1a0348b8462d00d237016945dfff",
        "nonce": "0x13",
        "chainId": "0xaa37dc"
      },
      "additionalContracts": [
        {
          "transactionType": "CREATE2",
          "address": "0x7060886ed1f7dc4dc59c98c034fef10dbb7266af",
          "initCode": "0x603d3d8160223d3973c88e6e5b01c7619ae5767f67782850d39f75815360095155f3363d3d373d3d363d7f360894a13ba1a3210667c828492db98dca3e2076cc3735a920a3ca505d382bbc545af43d6000803e6038573d6000fd5b3d6000f3"
        }
      ],
      "isFixedGasLimit": false
    }
  ],
  "receipts": [
    {
      "status": "0x1",
      "cumulativeGasUsed": "0x1aaaf6",
      "logs": [
        {
          "address": "0x7060886ed1f7dc4dc59c98c034fef10dbb7266af",
          "topics": [
            "0x38109edc26e166b5579352ce56a50813177eb25208fd90d61f2f378386220220",
            "0x0000000000000000000000000000000000000000000000000000000000000000"
          ],
          "data": "0x000000000000000000000000000000000000000000000000000000000000002000000000000000000000000000000000000000000000000000000000000000200000000000000000000000005b73c5498c1e3b4dba84de0f1833c4a029d90519",
          "blockHash": "0x29eed5cd6e9abad2a98985de4fa5f4fece2be292f9ad115b6ee5acdaddebf112",
          "blockNumber": "0x10047f7",
          "transactionHash": "0xaac1824d4c7d5046e78383f9d6ac53b0de9c7fb8493b8c09364c902633d639a5",
          "transactionIndex": "0x3",
          "logIndex": "0x16",
          "removed": false
        },
        {
          "address": "0x7060886ed1f7dc4dc59c98c034fef10dbb7266af",
          "topics": [
            "0x38109edc26e166b5579352ce56a50813177eb25208fd90d61f2f378386220220",
            "0x0000000000000000000000000000000000000000000000000000000000000001"
          ],
          "data": "0x00000000000000000000000000000000000000000000000000000000000000200000000000000000000000000000000000000000000000000000000000000020000000000000000000000000c1200b5147ba1a0348b8462d00d237016945dfff",
          "blockHash": "0x29eed5cd6e9abad2a98985de4fa5f4fece2be292f9ad115b6ee5acdaddebf112",
          "blockNumber": "0x10047f7",
          "transactionHash": "0xaac1824d4c7d5046e78383f9d6ac53b0de9c7fb8493b8c09364c902633d639a5",
          "transactionIndex": "0x3",
          "logIndex": "0x17",
          "removed": false
        }
      ],
      "logsBloom": "0x00000000000000000000000000000000000200000000000000000000000000000000000000000000000000000000000000000000000000000000000000040000000000000000000000000000000000000000000000040000000000000000000000000000020000000000000000000800000000000000000000000000000000008000000000000000000000000000000000000000000000000000000000000000000000000000000000000000000000000000000000000000000000000000000000000000000000800000000000000000000000000000000000000000000060000000900000000000000000000000000000000000004000000000000000000000",
      "type": "0x2",
      "transactionHash": "0xaac1824d4c7d5046e78383f9d6ac53b0de9c7fb8493b8c09364c902633d639a5",
      "transactionIndex": "0x3",
      "blockHash": "0x29eed5cd6e9abad2a98985de4fa5f4fece2be292f9ad115b6ee5acdaddebf112",
      "blockNumber": "0x10047f7",
      "gasUsed": "0x404b3",
      "effectiveGasPrice": "0xf6a5a",
      "from": "0xc1200b5147ba1a0348b8462d00d237016945dfff",
      "to": "0x5a685c883e4388c17747170de6228a0da1840cbe",
      "contractAddress": null,
      "l1BaseFeeScalar": "0x1db0",
      "l1BlobBaseFee": "0x106c3cc3",
      "l1BlobBaseFeeScalar": "0xd2730",
      "l1Fee": "0x20fa1ec778",
      "l1GasPrice": "0x18ec9d5c2",
      "l1GasUsed": "0x86c"
    }
  ],
  "libraries": [],
  "pending": [],
  "returns": {},
  "timestamp": 1725393823,
  "chain": 11155420,
  "commit": "962060b"
}