{
  "transactions": [
    {
      "hash": "0x1854eb082679e27ba9246cf37a6a3c53c3a737acf377575ec4f38800894fde94",
      "transactionType": "CALL",
      "contractName": null,
      "contractAddress": "0xce1520e676e5f126f024e0fcd342b66fa9f97593",
      "function": "createAccount(bytes[],uint256)",
      "arguments": [
        "[0x0000000000000000000000005b73c5498c1e3b4dba84de0f1833c4a029d90519, 0x000000000000000000000000c1200b5147ba1a0348b8462d00d237016945dfff]",
        "0"
      ],
      "transaction": {
        "from": "0xc1200b5147ba1a0348b8462d00d237016945dfff",
        "to": "0xce1520e676e5f126f024e0fcd342b66fa9f97593",
        "gas": "0x5e05e",
        "value": "0x0",
        "input": "0x3ffba36f0000000000000000000000000000000000000000000000000000000000000040000000000000000000000000000000000000000000000000000000000000000000000000000000000000000000000000000000000000000000000000000000020000000000000000000000000000000000000000000000000000000000000040000000000000000000000000000000000000000000000000000000000000008000000000000000000000000000000000000000000000000000000000000000200000000000000000000000005b73c5498c1e3b4dba84de0f1833c4a029d905190000000000000000000000000000000000000000000000000000000000000020000000000000000000000000c1200b5147ba1a0348b8462d00d237016945dfff",
        "nonce": "0x5",
        "chainId": "0xaa37dc"
      },
      "additionalContracts": [
        {
          "transactionType": "CREATE2",
          "address": "0x4b756937708d36ef8cef2c475592d388f53710cd",
          "initCode": "0x603d3d8160223d39733c588d5141ffc6358eeef4a4bef3ba55eaaada8d60095155f3363d3d373d3d363d7f360894a13ba1a3210667c828492db98dca3e2076cc3735a920a3ca505d382bbc545af43d6000803e6038573d6000fd5b3d6000f3"
        }
      ],
      "isFixedGasLimit": false
    }
  ],
  "receipts": [
    {
      "status": "0x1",
      "cumulativeGasUsed": "0x8fee1",
      "logs": [
        {
          "address": "0x4b756937708d36ef8cef2c475592d388f53710cd",
          "topics": [
            "0x38109edc26e166b5579352ce56a50813177eb25208fd90d61f2f378386220220",
            "0x0000000000000000000000000000000000000000000000000000000000000000"
          ],
          "data": "0x000000000000000000000000000000000000000000000000000000000000002000000000000000000000000000000000000000000000000000000000000000200000000000000000000000005b73c5498c1e3b4dba84de0f1833c4a029d90519",
          "blockHash": "0x3f94b17504bd9e504ff255ebe87b438acf0b377df66454fa243e4bcdbbc6e26c",
          "blockNumber": "0xfd8539",
          "transactionHash": "0x1854eb082679e27ba9246cf37a6a3c53c3a737acf377575ec4f38800894fde94",
          "transactionIndex": "0x2",
          "logIndex": "0x6",
          "removed": false
        },
        {
          "address": "0x4b756937708d36ef8cef2c475592d388f53710cd",
          "topics": [
            "0x38109edc26e166b5579352ce56a50813177eb25208fd90d61f2f378386220220",
            "0x0000000000000000000000000000000000000000000000000000000000000001"
          ],
          "data": "0x00000000000000000000000000000000000000000000000000000000000000200000000000000000000000000000000000000000000000000000000000000020000000000000000000000000c1200b5147ba1a0348b8462d00d237016945dfff",
          "blockHash": "0x3f94b17504bd9e504ff255ebe87b438acf0b377df66454fa243e4bcdbbc6e26c",
          "blockNumber": "0xfd8539",
          "transactionHash": "0x1854eb082679e27ba9246cf37a6a3c53c3a737acf377575ec4f38800894fde94",
          "transactionIndex": "0x2",
          "logIndex": "0x7",
          "removed": false
        }
      ],
      "logsBloom": "0x00000000000000000000000000000000000000000000000000000000000000000000000040000000000000000000000000000000000000000000000000040000001000000000000000000000000000000000000000040000000000000000000000000000020000000000000000000800000000000000000000000000000000008000000000000000000000000000000000000000000000000000000000000000000000000000000000000000000000000000000000000000000000000000000000000000000000800000000000000000000000000000000000000800000060000000800000000000000000000000000000000000000000000000000000000000",
      "type": "0x2",
      "transactionHash": "0x1854eb082679e27ba9246cf37a6a3c53c3a737acf377575ec4f38800894fde94",
      "transactionIndex": "0x2",
      "blockHash": "0x3f94b17504bd9e504ff255ebe87b438acf0b377df66454fa243e4bcdbbc6e26c",
      "blockNumber": "0xfd8539",
      "gasUsed": "0x404a7",
      "effectiveGasPrice": "0x34ef1ab",
      "from": "0xc1200b5147ba1a0348b8462d00d237016945dfff",
      "to": "0xce1520e676e5f126f024e0fcd342b66fa9f97593",
      "contractAddress": null,
      "l1BaseFeeScalar": "0x1db0",
      "l1BlobBaseFee": "0x1",
      "l1BlobBaseFeeScalar": "0xd2730",
      "l1Fee": "0x2fb017800e",
      "l1GasPrice": "0x30ae1d31c",
      "l1GasUsed": "0x80e"
    }
  ],
  "libraries": [],
  "pending": [],
  "returns": {},
  "timestamp": 1725031971,
  "chain": 11155420,
  "commit": "6dd21c8"
}