{
  "transactions": [
    {
      "hash": "0x754ce6c10fcbdb98354cf1ced9f4686ffe84c529557d57d140297148d0ff6aac",
      "transactionType": "CALL",
      "contractName": null,
      "contractAddress": "0x5a685c883e4388c17747170de6228a0da1840cbe",
      "function": "createAccount(bytes[],uint256)",
      "arguments": [
        "[0x000000000000000000000000c1200b5147ba1a0348b8462d00d237016945dfff]",
        "0"
      ],
      "transaction": {
        "from": "0xc1200b5147ba1a0348b8462d00d237016945dfff",
        "to": "0x5a685c883e4388c17747170de6228a0da1840cbe",
        "gas": "0x40569",
        "value": "0x0",
        "input": "0x3ffba36f00000000000000000000000000000000000000000000000000000000000000400000000000000000000000000000000000000000000000000000000000000000000000000000000000000000000000000000000000000000000000000000000100000000000000000000000000000000000000000000000000000000000000200000000000000000000000000000000000000000000000000000000000000020000000000000000000000000c1200b5147ba1a0348b8462d00d237016945dfff",
        "nonce": "0x15",
        "chainId": "0xaa37dc"
      },
      "additionalContracts": [
        {
          "transactionType": "CREATE2",
          "address": "0x4ecdd46934ce547fb49267d83babf081cd09659c",
          "initCode": "0x603d3d8160223d3973c88e6e5b01c7619ae5767f67782850d39f75815360095155f3363d3d373d3d363d7f360894a13ba1a3210667c828492db98dca3e2076cc3735a920a3ca505d382bbc545af43d6000803e6038573d6000fd5b3d6000f3"
        }
      ],
      "isFixedGasLimit": false
    }
  ],
  "receipts": [
    {
      "status": "0x1",
      "cumulativeGasUsed": "0x394a4",
      "logs": [
        {
          "address": "0x4ecdd46934ce547fb49267d83babf081cd09659c",
          "topics": [
            "0x38109edc26e166b5579352ce56a50813177eb25208fd90d61f2f378386220220",
            "0x0000000000000000000000000000000000000000000000000000000000000000"
          ],
          "data": "0x00000000000000000000000000000000000000000000000000000000000000200000000000000000000000000000000000000000000000000000000000000020000000000000000000000000c1200b5147ba1a0348b8462d00d237016945dfff",
          "blockHash": "0x415f24bc67efde999231859acbf8d3ac444dec39b315d147d946110b4e355b7c",
          "blockNumber": "0x1004f87",
          "transactionHash": "0x754ce6c10fcbdb98354cf1ced9f4686ffe84c529557d57d140297148d0ff6aac",
          "transactionIndex": "0x1",
          "logIndex": "0x0",
          "removed": false
        }
      ],
      "logsBloom": "0x00000000000000000000000000000000000000000000000000000000008000000000000000000000000000000000000000000000000000000000000000000000000004000000000000000000000000000000000000000000000000000000000000000000020000000000000000000800000000000000000000000000000000008000000000000000000000000000000000000000000000000000000000080000000000000000000000000000000000000000000000000000000000000000000000000000000000800000000000000000000000000000000000000000000020000000800000000000000000000000000000000000000000000000000000000000",
      "type": "0x2",
      "transactionHash": "0x754ce6c10fcbdb98354cf1ced9f4686ffe84c529557d57d140297148d0ff6aac",
      "transactionIndex": "0x1",
      "blockHash": "0x415f24bc67efde999231859acbf8d3ac444dec39b315d147d946110b4e355b7c",
      "blockNumber": "0x1004f87",
      "gasUsed": "0x2e94d",
      "effectiveGasPrice": "0x68e787e",
      "from": "0xc1200b5147ba1a0348b8462d00d237016945dfff",
      "to": "0x5a685c883e4388c17747170de6228a0da1840cbe",
      "contractAddress": null,
      "l1BaseFeeScalar": "0x1db0",
      "l1BlobBaseFee": "0x37285",
      "l1BlobBaseFeeScalar": "0xd2730",
      "l1Fee": "0x10cc3595e9",
      "l1GasPrice": "0x1618a48f1",
      "l1GasUsed": "0x640"
    }
  ],
  "libraries": [],
  "pending": [],
  "returns": {},
  "timestamp": 1725397695,
  "chain": 11155420,
  "commit": "962060b"
}