{
  "transactions": [
    {
      "hash": "0xcbe798bff19a42e4ae3ffed5ea992be4512e4de313d08d7c4b609dcfda35706a",
      "transactionType": "CALL",
      "contractName": null,
      "contractAddress": "0xdd21f566b37c6aaf1abf024b815d802931d6d3f9",
      "function": "createAccount(bytes[],uint256)",
      "arguments": [
        "[0x000000000000000000000000c1200b5147ba1a0348b8462d00d237016945dfff]",
        "0"
      ],
      "transaction": {
        "from": "0xc1200b5147ba1a0348b8462d00d237016945dfff",
        "to": "0xdd21f566b37c6aaf1abf024b815d802931d6d3f9",
        "gas": "0x99da",
        "value": "0x0",
        "input": "0x3ffba36f00000000000000000000000000000000000000000000000000000000000000400000000000000000000000000000000000000000000000000000000000000000000000000000000000000000000000000000000000000000000000000000000100000000000000000000000000000000000000000000000000000000000000200000000000000000000000000000000000000000000000000000000000000020000000000000000000000000c1200b5147ba1a0348b8462d00d237016945dfff",
        "nonce": "0x39",
        "chainId": "0xaa37dc"
      },
      "additionalContracts": [],
      "isFixedGasLimit": false
    }
  ],
  "receipts": [
    {
      "status": "0x1",
      "cumulativeGasUsed": "0x2228e8",
      "logs": [],
      "logsBloom": "0x00000000000000000000000000000000000000000000000000000000000000000000000000000000000000000000000000000000000000000000000000000000000000000000000000000000000000000000000000000000000000000000000000000000000000000000000000000000000000000000000000000000000000000000000000000000000000000000000000000000000000000000000000000000000000000000000000000000000000000000000000000000000000000000000000000000000000000000000000000000000000000000000000000000000000000000000000000000000000000000000000000000000000000000000000000000",
      "type": "0x2",
      "transactionHash": "0xcbe798bff19a42e4ae3ffed5ea992be4512e4de313d08d7c4b609dcfda35706a",
      "transactionIndex": "0x3",
      "blockHash": "0xac70440388d3c75c913ec038021d109744f8c62b3b002ab8c9fb7d27009ecb38",
      "blockNumber": "0x12d4ca1",
      "gasUsed": "0x6933",
      "effectiveGasPrice": "0xf6a4f",
      "from": "0xc1200b5147ba1a0348b8462d00d237016945dfff",
      "to": "0xdd21f566b37c6aaf1abf024b815d802931d6d3f9",
      "contractAddress": null,
      "l1BaseFeeScalar": "0x1db0",
      "l1BlobBaseFee": "0x1",
      "l1BlobBaseFeeScalar": "0xd2730",
      "l1Fee": "0xcacd614ff",
      "l1GasPrice": "0x10ad85798",
      "l1GasUsed": "0x640"
    }
  ],
  "libraries": [],
  "pending": [],
  "returns": {},
  "timestamp": 1731294452,
  "chain": 11155420,
  "commit": "657968c"
}