{
  "transactions": [
    {
      "hash": "0x58762ff4219eee58ffdc0c9ef1aff88c41123e76a8c445e0b9cbd6e425a35387",
      "transactionType": "CALL",
      "contractName": null,
      "contractAddress": "0xce1520e676e5f126f024e0fcd342b66fa9f97593",
      "function": "createAccount(bytes[],uint256)",
      "arguments": [
        "[0x0000000000000000000000005b73c5498c1e3b4dba84de0f1833c4a029d90519, 0x000000000000000000000000c1200b5147ba1a0348b8462d00d237016945dfff]",
        "0"
      ],
      "transaction": {
        "from": "0xc1200b5147ba1a0348b8462d00d237016945dfff",
        "to": "0xce1520e676e5f126f024e0fcd342b66fa9f97593",
        "gas": "0x93ff",
        "value": "0x0",
        "input": "0x3ffba36f0000000000000000000000000000000000000000000000000000000000000040000000000000000000000000000000000000000000000000000000000000000000000000000000000000000000000000000000000000000000000000000000020000000000000000000000000000000000000000000000000000000000000040000000000000000000000000000000000000000000000000000000000000008000000000000000000000000000000000000000000000000000000000000000200000000000000000000000005b73c5498c1e3b4dba84de0f1833c4a029d905190000000000000000000000000000000000000000000000000000000000000020000000000000000000000000c1200b5147ba1a0348b8462d00d237016945dfff",
        "nonce": "0x6",
        "chainId": "0xaa37dc"
      },
      "additionalContracts": [],
      "isFixedGasLimit": false
    }
  ],
  "receipts": [
    {
      "status": "0x1",
      "cumulativeGasUsed": "0x2bc9d3",
      "logs": [],
      "logsBloom": "0x00000000000000000000000000000000000000000000000000000000000000000000000000000000000000000000000000000000000000000000000000000000000000000000000000000000000000000000000000000000000000000000000000000000000000000000000000000000000000000000000000000000000000000000000000000000000000000000000000000000000000000000000000000000000000000000000000000000000000000000000000000000000000000000000000000000000000000000000000000000000000000000000000000000000000000000000000000000000000000000000000000000000000000000000000000000",
      "type": "0x2",
      "transactionHash": "0x58762ff4219eee58ffdc0c9ef1aff88c41123e76a8c445e0b9cbd6e425a35387",
      "transactionIndex": "0x5",
      "blockHash": "0x12ba1f254111e62388bc8a279de94f95c4b4ff1bd4b8ce9fa2e0ba66cc7bd92a",
      "blockNumber": "0xfd85fa",
      "gasUsed": "0x6b26",
      "effectiveGasPrice": "0xf6aab",
      "from": "0xc1200b5147ba1a0348b8462d00d237016945dfff",
      "to": "0xce1520e676e5f126f024e0fcd342b66fa9f97593",
      "contractAddress": null,
      "l1BaseFeeScalar": "0x1db0",
      "l1BlobBaseFee": "0x1",
      "l1BlobBaseFeeScalar": "0xd2730",
      "l1Fee": "0x333aa99ead",
      "l1GasPrice": "0x35555dd48",
      "l1GasUsed": "0x7e6"
    }
  ],
  "libraries": [],
  "pending": [],
  "returns": {},
  "timestamp": 1725032357,
  "chain": 11155420,
  "commit": "6dd21c8"
}