{
  "transactions": [
    {
      "hash": "0xd0cf1ea65f5dc927816686bb8e7248258bc14c9c07a9e796124770d752bfdef8",
      "transactionType": "CALL",
      "contractName": null,
      "contractAddress": "0x5ff137d4b0fdcd49dca30c7cf57e578a026d2789",
      "function": "handleOps((address,uint256,bytes,bytes,uint256,uint256,uint256,uint256,uint256,bytes,bytes)[],address)",
      "arguments": [
        "[(0x8AEaEa2b55b0Bb1d5a5e8e6898A175F79723922d, 155930327655066839810048, 0x, 0x2c2abd1e00000000000000000000000000000000000000000000000000000000000000200000000000000000000000000000000000000000000000000000000000000001000000000000000000000000000000000000000000000000000000000000002000000000000000000000000000000000000000000000000000000000000000240f0f3f240000000000000000000000000397b15451ad09c5e7fd851bcc1315462ac72c2f00000000000000000000000000000000000000000000000000000000, 1000000, 1000000, 0, 0, 0, 0x, 0x000000000000000000000000000000000000000000000000000000000000002000000000000000000000000000000000000000000000000000000000000000000000000000000000000000000000000000000000000000000000000000000040000000000000000000000000000000000000000000000000000000000000004153ffbc022bbd9404008b2565969f466227ebfa5e16bb45022919f598c929e11d377493b4ff8bd788454f4fea8679b13bbec0e3cd8d243c11051a3a6014349ceb1b00000000000000000000000000000000000000000000000000000000000000)]",
        "0xe419E77B83F1370e74D8ba6aC785a40CeF7a7ac0"
      ],
      "transaction": {
        "from": "0xc1200b5147ba1a0348b8462d00d237016945dfff",
        "to": "0x5ff137d4b0fdcd49dca30c7cf57e578a026d2789",
        "gas": "0x433af",
        "value": "0x0",
        "input": "0x1fad948c0000000000000000000000000000000000000000000000000000000000000040000000000000000000000000e419e77b83f1370e74d8ba6ac785a40cef7a7ac0000000000000000000000000000000000000000000000000000000000000000100000000000000000000000000000000000000000000000000000000000000200000000000000000000000008aeaea2b55b0bb1d5a5e8e6898a175f79723922d00000000000000000000000000000000000000000000210500000000000000000000000000000000000000000000000000000000000000000000000000000160000000000000000000000000000000000000000000000000000000000000018000000000000000000000000000000000000000000000000000000000000f424000000000000000000000000000000000000000000000000000000000000f4240000000000000000000000000000000000000000000000000000000000000000000000000000000000000000000000000000000000000000000000000000000000000000000000000000000000000000000000000000000000000000000000000000000000000000000000000000000000000000000000000000000000000028000000000000000000000000000000000000000000000000000000000000002a0000000000000000000000000000000000000000000000000000000000000000000000000000000000000000000000000000000000000000000000000000000c42c2abd1e00000000000000000000000000000000000000000000000000000000000000200000000000000000000000000000000000000000000000000000000000000001000000000000000000000000000000000000000000000000000000000000002000000000000000000000000000000000000000000000000000000000000000240f0f3f240000000000000000000000000397b15451ad09c5e7fd851bcc1315462ac72c2f0000000000000000000000000000000000000000000000000000000000000000000000000000000000000000000000000000000000000000000000000000000000000000000000000000000000000000000000000000000000000000000000000000000000000000000000000000000000000000000000e0000000000000000000000000000000000000000000000000000000000000002000000000000000000000000000000000000000000000000000000000000000000000000000000000000000000000000000000000000000000000000000000040000000000000000000000000000000000000000000000000000000000000004153ffbc022bbd9404008b2565969f466227ebfa5e16bb45022919f598c929e11d377493b4ff8bd788454f4fea8679b13bbec0e3cd8d243c11051a3a6014349ceb1b00000000000000000000000000000000000000000000000000000000000000",
        "nonce": "0x1c",
        "chainId": "0xaa37dc"
      },
      "additionalContracts": [],
      "isFixedGasLimit": false
    }
  ],
  "receipts": [],
  "libraries": [],
  "pending": [],
  "returns": {},
  "timestamp": 1725479936,
  "chain": 11155420,
  "commit": "ffb45f4"
}