{
  "transactions": [
    {
      "hash": "0x6aa4ebaec0e3d44b56ea575c84d9d2870fc2c51cd48518a479ff8fec7b6c2b4d",
      "transactionType": "CALL",
      "contractName": null,
      "contractAddress": "0x5ff137d4b0fdcd49dca30c7cf57e578a026d2789",
      "function": "handleOps((address,uint256,bytes,bytes,uint256,uint256,uint256,uint256,uint256,bytes,bytes)[],address)",
      "arguments": [
        "[(0x8AEaEa2b55b0Bb1d5a5e8e6898A175F79723922d, 155930327655066839810048, 0x, 0x2c2abd1e00000000000000000000000000000000000000000000000000000000000000200000000000000000000000000000000000000000000000000000000000000001000000000000000000000000000000000000000000000000000000000000002000000000000000000000000000000000000000000000000000000000000000240f0f3f240000000000000000000000000397b15451ad09c5e7fd851bcc1315462ac72c2f00000000000000000000000000000000000000000000000000000000, 10000000, 10000000, 0, 0, 0, 0x, 0x0000000000000000000000000000000000000000000000000000000000000020000000000000000000000000000000000000000000000000000000000000000000000000000000000000000000000000000000000000000000000000000000400000000000000000000000000000000000000000000000000000000000000041cf470b65fae3860bcecca6b1b337825acf8c7e4f45482fca1a770bb209329fc40e6391a75aca17d5143ac7906c8ab39b834d85ed217f6f54564a04a11bcdc3be1c00000000000000000000000000000000000000000000000000000000000000)]",
        "0x8AEaEa2b55b0Bb1d5a5e8e6898A175F79723922d"
      ],
      "transaction": {
        "from": "0xc1200b5147ba1a0348b8462d00d237016945dfff",
        "to": "0x5ff137d4b0fdcd49dca30c7cf57e578a026d2789",
        "gas": "0x46680",
        "value": "0x0",
        "input": "0x1fad948c00000000000000000000000000000000000000000000000000000000000000400000000000000000000000008aeaea2b55b0bb1d5a5e8e6898a175f79723922d000000000000000000000000000000000000000000000000000000000000000100000000000000000000000000000000000000000000000000000000000000200000000000000000000000008aeaea2b55b0bb1d5a5e8e6898a175f79723922d00000000000000000000000000000000000000000000210500000000000000000000000000000000000000000000000000000000000000000000000000000160000000000000000000000000000000000000000000000000000000000000018000000000000000000000000000000000000000000000000000000000009896800000000000000000000000000000000000000000000000000000000000989680000000000000000000000000000000000000000000000000000000000000000000000000000000000000000000000000000000000000000000000000000000000000000000000000000000000000000000000000000000000000000000000000000000000000000000000000000000000000000000000000000000000000028000000000000000000000000000000000000000000000000000000000000002a0000000000000000000000000000000000000000000000000000000000000000000000000000000000000000000000000000000000000000000000000000000c42c2abd1e00000000000000000000000000000000000000000000000000000000000000200000000000000000000000000000000000000000000000000000000000000001000000000000000000000000000000000000000000000000000000000000002000000000000000000000000000000000000000000000000000000000000000240f0f3f240000000000000000000000000397b15451ad09c5e7fd851bcc1315462ac72c2f0000000000000000000000000000000000000000000000000000000000000000000000000000000000000000000000000000000000000000000000000000000000000000000000000000000000000000000000000000000000000000000000000000000000000000000000000000000000000000000000e00000000000000000000000000000000000000000000000000000000000000020000000000000000000000000000000000000000000000000000000000000000000000000000000000000000000000000000000000000000000000000000000400000000000000000000000000000000000000000000000000000000000000041cf470b65fae3860bcecca6b1b337825acf8c7e4f45482fca1a770bb209329fc40e6391a75aca17d5143ac7906c8ab39b834d85ed217f6f54564a04a11bcdc3be1c00000000000000000000000000000000000000000000000000000000000000",
        "nonce": "0x20",
        "chainId": "0xaa37dc"
      },
      "additionalContracts": [],
      "isFixedGasLimit": false
    }
  ],
  "receipts": [],
  "libraries": [],
  "pending": [],
  "returns": {},
  "timestamp": 1725496107,
  "chain": 11155420,
  "commit": "ffb45f4"
}