{
  "transactions": [
    {
      "hash": "0x5070a0eb728154e68084f687614e6bcd8fef7271e9e5c3fbc871515c73181ecf",
      "transactionType": "CALL",
      "contractName": null,
      "contractAddress": "0x5ff137d4b0fdcd49dca30c7cf57e578a026d2789",
      "function": "handleOps((address,uint256,bytes,bytes,uint256,uint256,uint256,uint256,uint256,bytes,bytes)[],address)",
      "arguments": [
        "[(0x8AEaEa2b55b0Bb1d5a5e8e6898A175F79723922d, 155930327655066839810049, 0x, 0x2c2abd1e00000000000000000000000000000000000000000000000000000000000000200000000000000000000000000000000000000000000000000000000000000001000000000000000000000000000000000000000000000000000000000000002000000000000000000000000000000000000000000000000000000000000000240f0f3f240000000000000000000000005ad3b55625553cef54d7561cd256658537d54aad00000000000000000000000000000000000000000000000000000000, 10000000, 10000000, 0, 0, 0, 0x, 0x0000000000000000000000000000000000000000000000000000000000000020000000000000000000000000000000000000000000000000000000000000000000000000000000000000000000000000000000000000000000000000000000400000000000000000000000000000000000000000000000000000000000000041d1403d9ec0273dc6d361a188e6f4c4039dac0993cbd066cf8e32c25e13ddbf441ed15909512d37e678c308f7d13f2582a0a7dd12019c73367ae0b8e576ebd2371c00000000000000000000000000000000000000000000000000000000000000)]",
        "0x8AEaEa2b55b0Bb1d5a5e8e6898A175F79723922d"
      ],
      "transaction": {
        "from": "0xc1200b5147ba1a0348b8462d00d237016945dfff",
        "to": "0x5ff137d4b0fdcd49dca30c7cf57e578a026d2789",
        "gas": "0x4a32b",
        "value": "0x0",
        "input": "0x1fad948c00000000000000000000000000000000000000000000000000000000000000400000000000000000000000008aeaea2b55b0bb1d5a5e8e6898a175f79723922d000000000000000000000000000000000000000000000000000000000000000100000000000000000000000000000000000000000000000000000000000000200000000000000000000000008aeaea2b55b0bb1d5a5e8e6898a175f79723922d00000000000000000000000000000000000000000000210500000000000000010000000000000000000000000000000000000000000000000000000000000160000000000000000000000000000000000000000000000000000000000000018000000000000000000000000000000000000000000000000000000000009896800000000000000000000000000000000000000000000000000000000000989680000000000000000000000000000000000000000000000000000000000000000000000000000000000000000000000000000000000000000000000000000000000000000000000000000000000000000000000000000000000000000000000000000000000000000000000000000000000000000000000000000000000000028000000000000000000000000000000000000000000000000000000000000002a0000000000000000000000000000000000000000000000000000000000000000000000000000000000000000000000000000000000000000000000000000000c42c2abd1e00000000000000000000000000000000000000000000000000000000000000200000000000000000000000000000000000000000000000000000000000000001000000000000000000000000000000000000000000000000000000000000002000000000000000000000000000000000000000000000000000000000000000240f0f3f240000000000000000000000005ad3b55625553cef54d7561cd256658537d54aad0000000000000000000000000000000000000000000000000000000000000000000000000000000000000000000000000000000000000000000000000000000000000000000000000000000000000000000000000000000000000000000000000000000000000000000000000000000000000000000000e00000000000000000000000000000000000000000000000000000000000000020000000000000000000000000000000000000000000000000000000000000000000000000000000000000000000000000000000000000000000000000000000400000000000000000000000000000000000000000000000000000000000000041d1403d9ec0273dc6d361a188e6f4c4039dac0993cbd066cf8e32c25e13ddbf441ed15909512d37e678c308f7d13f2582a0a7dd12019c73367ae0b8e576ebd2371c00000000000000000000000000000000000000000000000000000000000000",
        "nonce": "0x23",
        "chainId": "0xaa37dc"
      },
      "additionalContracts": [],
      "isFixedGasLimit": false
    }
  ],
  "receipts": [],
  "libraries": [],
  "pending": [],
  "returns": {},
  "timestamp": 1725559307,
  "chain": 11155420,
  "commit": "404bf80"
}